{
  "contractName": "ArtistCollection",
  "abi": [
    {
      "inputs": [
        {
          "internalType": "string",
          "name": "_name",
          "type": "string"
        },
        {
          "internalType": "string",
          "name": "_baseURI",
          "type": "string"
        },
        {
          "internalType": "address",
          "name": "_artistAddr",
          "type": "address"
        },
        {
          "internalType": "uint256",
          "name": "_royaltyBasisPoints",
          "type": "uint256"
        },
        {
          "internalType": "address",
          "name": "_currency",
          "type": "address"
        }
      ],
      "stateMutability": "nonpayable",
      "type": "constructor"
    },
    {
      "anonymous": false,
      "inputs": [
        {
          "indexed": true,
          "internalType": "address",
          "name": "_owner",
          "type": "address"
        },
        {
          "indexed": true,
          "internalType": "address",
          "name": "_operator",
          "type": "address"
        },
        {
          "indexed": false,
          "internalType": "bool",
          "name": "_approved",
          "type": "bool"
        }
      ],
      "name": "ApprovalForAll",
      "type": "event"
    },
    {
      "anonymous": false,
      "inputs": [
        {
          "indexed": true,
          "internalType": "address",
          "name": "previousOwner",
          "type": "address"
        },
        {
          "indexed": true,
          "internalType": "address",
          "name": "newOwner",
          "type": "address"
        }
      ],
      "name": "OwnershipTransferred",
      "type": "event"
    },
    {
      "anonymous": false,
      "inputs": [
        {
          "indexed": true,
          "internalType": "address",
          "name": "_operator",
          "type": "address"
        },
        {
          "indexed": true,
          "internalType": "address",
          "name": "_from",
          "type": "address"
        },
        {
          "indexed": true,
          "internalType": "address",
          "name": "_to",
          "type": "address"
        },
        {
          "indexed": false,
          "internalType": "uint256[]",
          "name": "_ids",
          "type": "uint256[]"
        },
        {
          "indexed": false,
          "internalType": "uint256[]",
          "name": "_amounts",
          "type": "uint256[]"
        }
      ],
      "name": "TransferBatch",
      "type": "event"
    },
    {
      "anonymous": false,
      "inputs": [
        {
          "indexed": true,
          "internalType": "address",
          "name": "_operator",
          "type": "address"
        },
        {
          "indexed": true,
          "internalType": "address",
          "name": "_from",
          "type": "address"
        },
        {
          "indexed": true,
          "internalType": "address",
          "name": "_to",
          "type": "address"
        },
        {
          "indexed": false,
          "internalType": "uint256",
          "name": "_id",
          "type": "uint256"
        },
        {
          "indexed": false,
          "internalType": "uint256",
          "name": "_amount",
          "type": "uint256"
        }
      ],
      "name": "TransferSingle",
      "type": "event"
    },
    {
      "anonymous": false,
      "inputs": [
        {
          "indexed": false,
          "internalType": "string",
          "name": "_uri",
          "type": "string"
        },
        {
          "indexed": true,
          "internalType": "uint256",
          "name": "_id",
          "type": "uint256"
        }
      ],
      "name": "URI",
      "type": "event"
    },
    {
      "stateMutability": "nonpayable",
      "type": "fallback"
    },
    {
      "inputs": [
        {
          "internalType": "address",
          "name": "_owner",
          "type": "address"
        },
        {
          "internalType": "uint256",
          "name": "_id",
          "type": "uint256"
        }
      ],
      "name": "balanceOf",
      "outputs": [
        {
          "internalType": "uint256",
          "name": "",
          "type": "uint256"
        }
      ],
      "stateMutability": "view",
      "type": "function"
    },
    {
      "inputs": [
        {
          "internalType": "address[]",
          "name": "_owners",
          "type": "address[]"
        },
        {
          "internalType": "uint256[]",
          "name": "_ids",
          "type": "uint256[]"
        }
      ],
      "name": "balanceOfBatch",
      "outputs": [
        {
          "internalType": "uint256[]",
          "name": "",
          "type": "uint256[]"
        }
      ],
      "stateMutability": "view",
      "type": "function"
    },
    {
      "inputs": [],
      "name": "baseURI",
      "outputs": [
        {
          "internalType": "string",
          "name": "",
          "type": "string"
        }
      ],
      "stateMutability": "view",
      "type": "function"
    },
    {
      "inputs": [],
      "name": "getCreator",
      "outputs": [
        {
          "internalType": "address",
          "name": "",
          "type": "address"
        }
      ],
      "stateMutability": "view",
      "type": "function"
    },
    {
      "inputs": [],
      "name": "getOwner",
      "outputs": [
        {
          "internalType": "address",
          "name": "",
          "type": "address"
        }
      ],
      "stateMutability": "view",
      "type": "function"
    },
    {
      "inputs": [],
      "name": "globalRoyaltyInfo",
      "outputs": [
        {
          "internalType": "address",
          "name": "receiver",
          "type": "address"
        },
        {
          "internalType": "uint256",
          "name": "feeBasisPoints",
          "type": "uint256"
        }
      ],
      "stateMutability": "view",
      "type": "function"
    },
    {
      "inputs": [
        {
          "internalType": "address",
          "name": "_owner",
          "type": "address"
        },
        {
          "internalType": "address",
          "name": "_operator",
          "type": "address"
        }
      ],
      "name": "isApprovedForAll",
      "outputs": [
        {
          "internalType": "bool",
          "name": "isOperator",
          "type": "bool"
        }
      ],
      "stateMutability": "view",
      "type": "function"
    },
    {
      "inputs": [],
      "name": "name",
      "outputs": [
        {
          "internalType": "string",
          "name": "",
          "type": "string"
        }
      ],
      "stateMutability": "view",
      "type": "function"
    },
    {
      "inputs": [
        {
          "internalType": "uint256",
          "name": "",
          "type": "uint256"
        },
        {
          "internalType": "uint256",
          "name": "_saleCost",
          "type": "uint256"
        }
      ],
      "name": "royaltyInfo",
      "outputs": [
        {
          "internalType": "address",
          "name": "receiver",
          "type": "address"
        },
        {
          "internalType": "uint256",
          "name": "royaltyAmount",
          "type": "uint256"
        }
      ],
      "stateMutability": "view",
      "type": "function"
    },
    {
      "inputs": [
        {
          "internalType": "address",
          "name": "_from",
          "type": "address"
        },
        {
          "internalType": "address",
          "name": "_to",
          "type": "address"
        },
        {
          "internalType": "uint256[]",
          "name": "_ids",
          "type": "uint256[]"
        },
        {
          "internalType": "uint256[]",
          "name": "_amounts",
          "type": "uint256[]"
        },
        {
          "internalType": "bytes",
          "name": "_data",
          "type": "bytes"
        }
      ],
      "name": "safeBatchTransferFrom",
      "outputs": [],
      "stateMutability": "nonpayable",
      "type": "function"
    },
    {
      "inputs": [
        {
          "internalType": "address",
          "name": "_from",
          "type": "address"
        },
        {
          "internalType": "address",
          "name": "_to",
          "type": "address"
        },
        {
          "internalType": "uint256",
          "name": "_id",
          "type": "uint256"
        },
        {
          "internalType": "uint256",
          "name": "_amount",
          "type": "uint256"
        },
        {
          "internalType": "bytes",
          "name": "_data",
          "type": "bytes"
        }
      ],
      "name": "safeTransferFrom",
      "outputs": [],
      "stateMutability": "nonpayable",
      "type": "function"
    },
    {
      "inputs": [
        {
          "internalType": "address",
          "name": "_operator",
          "type": "address"
        },
        {
          "internalType": "bool",
          "name": "_approved",
          "type": "bool"
        }
      ],
      "name": "setApprovalForAll",
      "outputs": [],
      "stateMutability": "nonpayable",
      "type": "function"
    },
    {
      "inputs": [
        {
          "internalType": "uint256",
          "name": "_id",
          "type": "uint256"
        }
      ],
      "name": "uri",
      "outputs": [
        {
          "internalType": "string",
          "name": "",
          "type": "string"
        }
      ],
      "stateMutability": "view",
      "type": "function"
    },
    {
      "inputs": [
        {
          "internalType": "string",
          "name": "_newuri",
          "type": "string"
        }
      ],
      "name": "setBaseURI",
      "outputs": [],
      "stateMutability": "nonpayable",
      "type": "function"
    },
    {
      "inputs": [
        {
          "internalType": "string",
          "name": "_newName",
          "type": "string"
        }
      ],
      "name": "setContractName",
      "outputs": [],
      "stateMutability": "nonpayable",
      "type": "function"
    },
    {
      "inputs": [
        {
          "internalType": "address",
          "name": "_newOwner",
          "type": "address"
        },
        {
          "internalType": "uint256",
          "name": "_royaltyBasisPoints",
          "type": "uint256"
        }
      ],
      "name": "transferOwnership",
      "outputs": [],
      "stateMutability": "nonpayable",
      "type": "function"
    },
    {
      "inputs": [
        {
          "internalType": "uint256",
          "name": "_id",
          "type": "uint256"
        }
      ],
      "name": "getTokenPrice",
      "outputs": [
        {
          "internalType": "uint256",
          "name": "",
          "type": "uint256"
        }
      ],
      "stateMutability": "view",
      "type": "function"
    },
    {
      "inputs": [],
      "name": "getCurrency",
      "outputs": [
        {
          "internalType": "address",
          "name": "",
          "type": "address"
        }
      ],
      "stateMutability": "view",
      "type": "function"
    },
    {
      "inputs": [
        {
          "internalType": "address",
          "name": "_currency",
          "type": "address"
        }
      ],
      "name": "setCurrency",
      "outputs": [],
      "stateMutability": "nonpayable",
      "type": "function"
    },
    {
      "inputs": [],
      "name": "currenctyBalance",
      "outputs": [
        {
          "internalType": "uint256",
          "name": "",
          "type": "uint256"
        }
      ],
      "stateMutability": "view",
      "type": "function"
    },
    {
      "inputs": [
        {
          "internalType": "uint256",
          "name": "_id",
          "type": "uint256"
        },
        {
          "internalType": "uint256",
          "name": "_price",
          "type": "uint256"
        }
      ],
      "name": "setPrice",
      "outputs": [],
      "stateMutability": "nonpayable",
      "type": "function"
    },
    {
      "inputs": [
        {
          "internalType": "uint256",
          "name": "_id",
          "type": "uint256"
        },
        {
          "internalType": "uint256",
          "name": "_amount",
          "type": "uint256"
        },
        {
          "internalType": "bytes",
          "name": "_data",
          "type": "bytes"
        }
      ],
      "name": "buy",
      "outputs": [],
      "stateMutability": "nonpayable",
      "type": "function"
    },
    {
      "inputs": [
        {
          "internalType": "uint256",
          "name": "_royaltyBasisPoints",
          "type": "uint256"
        }
      ],
      "name": "setGlobalRoyaltyInfo",
      "outputs": [],
      "stateMutability": "nonpayable",
      "type": "function"
    },
    {
      "inputs": [
        {
          "internalType": "uint256",
          "name": "id",
          "type": "uint256"
        },
        {
          "internalType": "uint256",
          "name": "amount",
          "type": "uint256"
        },
        {
          "internalType": "uint256",
          "name": "price",
          "type": "uint256"
        },
        {
          "internalType": "bytes",
          "name": "data",
          "type": "bytes"
        }
      ],
      "name": "mint",
      "outputs": [],
      "stateMutability": "nonpayable",
      "type": "function"
    },
    {
      "inputs": [
        {
          "internalType": "uint256[]",
          "name": "ids",
          "type": "uint256[]"
        },
        {
          "internalType": "uint256[]",
          "name": "amounts",
          "type": "uint256[]"
        },
        {
          "internalType": "uint256[]",
          "name": "prices",
          "type": "uint256[]"
        },
        {
          "internalType": "bytes",
          "name": "data",
          "type": "bytes"
        }
      ],
      "name": "mintBatch",
      "outputs": [],
      "stateMutability": "nonpayable",
      "type": "function"
    },
    {
      "inputs": [],
      "name": "getNextTokenID",
      "outputs": [
        {
          "internalType": "uint256",
          "name": "",
          "type": "uint256"
        }
      ],
      "stateMutability": "view",
      "type": "function"
    },
    {
      "inputs": [
        {
          "internalType": "uint256",
          "name": "_id",
          "type": "uint256"
        },
        {
          "internalType": "uint256",
          "name": "_amount",
          "type": "uint256"
        }
      ],
      "name": "burn",
      "outputs": [],
      "stateMutability": "nonpayable",
      "type": "function"
    },
    {
      "inputs": [
        {
          "internalType": "uint256[]",
          "name": "_ids",
          "type": "uint256[]"
        },
        {
          "internalType": "uint256[]",
          "name": "_amounts",
          "type": "uint256[]"
        }
      ],
      "name": "batchBurn",
      "outputs": [],
      "stateMutability": "nonpayable",
      "type": "function"
    },
    {
      "inputs": [
        {
          "internalType": "bytes4",
          "name": "_interfaceID",
          "type": "bytes4"
        }
      ],
      "name": "supportsInterface",
      "outputs": [
        {
          "internalType": "bool",
          "name": "",
          "type": "bool"
        }
      ],
      "stateMutability": "pure",
      "type": "function"
    }
  ],
  "bytecode": "0x60806040523480156200001157600080fd5b5060405162004b6f38038062004b6f833981810160405260a08110156200003757600080fd5b81019080805160405193929190846401000000008211156200005857600080fd5b838201915060208201858111156200006f57600080fd5b82518660018202830111640100000000821117156200008d57600080fd5b8083526020830192505050908051906020019080838360005b83811015620000c3578082015181840152602081019050620000a6565b50505050905090810190601f168015620000f15780820380516001836020036101000a031916815260200191505b50604052602001805160405193929190846401000000008211156200011557600080fd5b838201915060208201858111156200012c57600080fd5b82518660018202830111640100000000821117156200014a57600080fd5b8083526020830192505050908051906020019080838360005b838110156200018057808201518184015260208101905062000163565b50505050905090810190601f168015620001ae5780820380516001836020036101000a031916815260200191505b50604052602001805190602001909291908051906020019092919080519060200190929190505050338386868160039080519060200190620001f29291906200048a565b5080600290805190602001906200020b9291906200048a565b50505080600660006101000a81548173ffffffffffffffffffffffffffffffffffffffff021916908373ffffffffffffffffffffffffffffffffffffffff16021790555081600760006101000a81548173ffffffffffffffffffffffffffffffffffffffff021916908373ffffffffffffffffffffffffffffffffffffffff1602179055508073ffffffffffffffffffffffffffffffffffffffff16600073ffffffffffffffffffffffffffffffffffffffff167f8be0079c531659141344cd1fd0a4f28419497f9722a3daafe3b4186f6b6457e060405160405180910390a35050620002ff83836200035360201b60201c565b80600860006101000a81548173ffffffffffffffffffffffffffffffffffffffff021916908373ffffffffffffffffffffffffffffffffffffffff1602179055506000600a81905550505050505062000540565b600073ffffffffffffffffffffffffffffffffffffffff168273ffffffffffffffffffffffffffffffffffffffff161415620003db576040517f08c379a000000000000000000000000000000000000000000000000000000000815260040180806020018281038252603181526020018062004b056031913960400191505060405180910390fd5b6103e881111562000438576040517f08c379a000000000000000000000000000000000000000000000000000000000815260040180806020018281038252603981526020018062004b366039913960400191505060405180910390fd5b81600460000160006101000a81548173ffffffffffffffffffffffffffffffffffffffff021916908373ffffffffffffffffffffffffffffffffffffffff160217905550806004600101819055505050565b828054600181600116156101000203166002900490600052602060002090601f016020900481019282620004c257600085556200050e565b82601f10620004dd57805160ff19168380011785556200050e565b828001600101855582156200050e579182015b828111156200050d578251825591602001919060010190620004f0565b5b5090506200051d919062000521565b5090565b5b808211156200053c57600081600090555060010162000522565b5090565b6145b580620005506000396000f3fe608060405234801561001057600080fd5b50600436106101d25760003560e01c80634a9eee6911610104578063893d20e8116100a2578063c9823cc611610071578063c9823cc614611121578063e985e9c51461115c578063f242432a146111d6578063f7d97577146112e5576101d3565b8063893d20e814611023578063a22cb46514611057578063b390c0ab146110a7578063c457fb37146110df576101d3565b806355f804b3116100de57806355f804b314610c7c5780636945c1fd14610cf55780636c0360eb14610d2957806387fb8e4814610dac576101d3565b80634a9eee69146109e45780634c6af17c14610abd5780634e1273f414610adb576101d3565b80630ee2cb10116101715780632a55205a1161014b5780632a55205a146106f65780632eb2c2d61461075f5780632f84c391146109825780634a198119146109c6576101d3565b80630ee2cb10146105255780631efd73a51461055957806320ec271b14610628576101d3565b806306fdde03116101ad57806306fdde03146103345780630a276680146103b75780630b5ee006146104055780630e89341c1461047e576101d3565b8062fdd58e1461024157806301ffc9a7146102a3578063045a1e9914610306576101d3565b5b6040517f08c379a00000000000000000000000000000000000000000000000000000000081526004018080602001828103825260128152602001807f554e535550504f525445445f4d4554484f44000000000000000000000000000081525060200191505060405180910390fd5b61028d6004803603604081101561025757600080fd5b81019080803573ffffffffffffffffffffffffffffffffffffffff1690602001909291908035906020019092919050505061131d565b6040518082815260200191505060405180910390f35b6102ee600480360360208110156102b957600080fd5b8101908080357bffffffffffffffffffffffffffffffffffffffffffffffffffffffff19169060200190929190505050611377565b60405180821515815260200191505060405180910390f35b6103326004803603602081101561031c57600080fd5b8101908080359060200190929190505050611389565b005b61033c61145e565b6040518080602001828103825283818151815260200191508051906020019080838360005b8381101561037c578082015181840152602081019050610361565b50505050905090810190601f1680156103a95780820380516001836020036101000a031916815260200191505b509250505060405180910390f35b610403600480360360408110156103cd57600080fd5b81019080803573ffffffffffffffffffffffffffffffffffffffff169060200190929190803590602001909291905050506114fc565b005b61047c6004803603602081101561041b57600080fd5b810190808035906020019064010000000081111561043857600080fd5b82018360208201111561044a57600080fd5b8035906020019184600183028401116401000000008311171561046c57600080fd5b90919293919293905050506115b9565b005b6104aa6004803603602081101561049457600080fd5b81019080803590602001909291905050506116b0565b6040518080602001828103825283818151815260200191508051906020019080838360005b838110156104ea5780820151818401526020810190506104cf565b50505050905090810190601f1680156105175780820380516001836020036101000a031916815260200191505b509250505060405180910390f35b61052d6117b0565b604051808273ffffffffffffffffffffffffffffffffffffffff16815260200191505060405180910390f35b6106266004803603606081101561056f57600080fd5b810190808035906020019092919080359060200190929190803590602001906401000000008111156105a057600080fd5b8201836020820111156105b257600080fd5b803590602001918460018302840111640100000000831117156105d457600080fd5b91908080601f016020809104026020016040519081016040528093929190818152602001838380828437600081840152601f19601f8201169050808301925050505050505091929192905050506117da565b005b6106f46004803603604081101561063e57600080fd5b810190808035906020019064010000000081111561065b57600080fd5b82018360208201111561066d57600080fd5b8035906020019184602083028401116401000000008311171561068f57600080fd5b9091929391929390803590602001906401000000008111156106b057600080fd5b8201836020820111156106c257600080fd5b803590602001918460208302840111640100000000831117156106e457600080fd5b9091929391929390505050611a18565b005b61072c6004803603604081101561070c57600080fd5b810190808035906020019092919080359060200190929190505050611aab565b604051808373ffffffffffffffffffffffffffffffffffffffff1681526020018281526020019250505060405180910390f35b610980600480360360a081101561077557600080fd5b81019080803573ffffffffffffffffffffffffffffffffffffffff169060200190929190803573ffffffffffffffffffffffffffffffffffffffff169060200190929190803590602001906401000000008111156107d257600080fd5b8201836020820111156107e457600080fd5b8035906020019184602083028401116401000000008311171561080657600080fd5b919080806020026020016040519081016040528093929190818152602001838360200280828437600081840152601f19601f8201169050808301925050505050505091929192908035906020019064010000000081111561086657600080fd5b82018360208201111561087857600080fd5b8035906020019184602083028401116401000000008311171561089a57600080fd5b919080806020026020016040519081016040528093929190818152602001838360200280828437600081840152601f19601f820116905080830192505050505050509192919290803590602001906401000000008111156108fa57600080fd5b82018360208201111561090c57600080fd5b8035906020019184600183028401116401000000008311171561092e57600080fd5b91908080601f016020809104026020016040519081016040528093929190818152602001838380828437600081840152601f19601f820116905080830192505050505050509192919290505050611b61565b005b6109c46004803603602081101561099857600080fd5b81019080803573ffffffffffffffffffffffffffffffffffffffff169060200190929190505050611c9d565b005b6109ce611d87565b6040518082815260200191505060405180910390f35b610abb600480360360808110156109fa57600080fd5b8101908080359060200190929190803590602001909291908035906020019092919080359060200190640100000000811115610a3557600080fd5b820183602082011115610a4757600080fd5b80359060200191846001830284011164010000000083111715610a6957600080fd5b91908080601f016020809104026020016040519081016040528093929190818152602001838380828437600081840152601f19601f820116905080830192505050505050509192919290505050611d94565b005b610ac5611e98565b6040518082815260200191505060405180910390f35b610c2560048036036040811015610af157600080fd5b8101908080359060200190640100000000811115610b0e57600080fd5b820183602082011115610b2057600080fd5b80359060200191846020830284011164010000000083111715610b4257600080fd5b919080806020026020016040519081016040528093929190818152602001838360200280828437600081840152601f19601f82011690508083019250505050505050919291929080359060200190640100000000811115610ba257600080fd5b820183602082011115610bb457600080fd5b80359060200191846020830284011164010000000083111715610bd657600080fd5b919080806020026020016040519081016040528093929190818152602001838360200280828437600081840152601f19601f820116905080830192505050505050509192919290505050611f63565b6040518080602001828103825283818151815260200191508051906020019060200280838360005b83811015610c68578082015181840152602081019050610c4d565b505050509050019250505060405180910390f35b610cf360048036036020811015610c9257600080fd5b8101908080359060200190640100000000811115610caf57600080fd5b820183602082011115610cc157600080fd5b80359060200191846001830284011164010000000083111715610ce357600080fd5b90919293919293905050506120bd565b005b610cfd6121b4565b604051808273ffffffffffffffffffffffffffffffffffffffff16815260200191505060405180910390f35b610d316121de565b6040518080602001828103825283818151815260200191508051906020019080838360005b83811015610d71578082015181840152602081019050610d56565b50505050905090810190601f168015610d9e5780820380516001836020036101000a031916815260200191505b509250505060405180910390f35b61102160048036036080811015610dc257600080fd5b8101908080359060200190640100000000811115610ddf57600080fd5b820183602082011115610df157600080fd5b80359060200191846020830284011164010000000083111715610e1357600080fd5b919080806020026020016040519081016040528093929190818152602001838360200280828437600081840152601f19601f82011690508083019250505050505050919291929080359060200190640100000000811115610e7357600080fd5b820183602082011115610e8557600080fd5b80359060200191846020830284011164010000000083111715610ea757600080fd5b919080806020026020016040519081016040528093929190818152602001838360200280828437600081840152601f19601f82011690508083019250505050505050919291929080359060200190640100000000811115610f0757600080fd5b820183602082011115610f1957600080fd5b80359060200191846020830284011164010000000083111715610f3b57600080fd5b919080806020026020016040519081016040528093929190818152602001838360200280828437600081840152601f19601f82011690508083019250505050505050919291929080359060200190640100000000811115610f9b57600080fd5b820183602082011115610fad57600080fd5b80359060200191846001830284011164010000000083111715610fcf57600080fd5b91908080601f016020809104026020016040519081016040528093929190818152602001838380828437600081840152601f19601f82011690508083019250505050505050919291929050505061227c565b005b61102b6123e6565b604051808273ffffffffffffffffffffffffffffffffffffffff16815260200191505060405180910390f35b6110a56004803603604081101561106d57600080fd5b81019080803573ffffffffffffffffffffffffffffffffffffffff169060200190929190803515159060200190929190505050612410565b005b6110dd600480360360408110156110bd57600080fd5b81019080803590602001909291908035906020019092919050505061250f565b005b61110b600480360360208110156110f557600080fd5b810190808035906020019092919050505061251e565b6040518082815260200191505060405180910390f35b61112961253b565b604051808373ffffffffffffffffffffffffffffffffffffffff1681526020018281526020019250505060405180910390f35b6111be6004803603604081101561117257600080fd5b81019080803573ffffffffffffffffffffffffffffffffffffffff169060200190929190803573ffffffffffffffffffffffffffffffffffffffff16906020019092919050505061256d565b60405180821515815260200191505060405180910390f35b6112e3600480360360a08110156111ec57600080fd5b81019080803573ffffffffffffffffffffffffffffffffffffffff169060200190929190803573ffffffffffffffffffffffffffffffffffffffff16906020019092919080359060200190929190803590602001909291908035906020019064010000000081111561125d57600080fd5b82018360208201111561126f57600080fd5b8035906020019184600183028401116401000000008311171561129157600080fd5b91908080601f016020809104026020016040519081016040528093929190818152602001838380828437600081840152601f19601f820116905080830192505050505050509192919290505050612601565b005b61131b600480360360408110156112fb57600080fd5b81019080803590602001909291908035906020019092919050505061273d565b005b60008060008473ffffffffffffffffffffffffffffffffffffffff1673ffffffffffffffffffffffffffffffffffffffff168152602001908152602001600020600083815260200190815260200160002054905092915050565b6000611382826127ff565b9050919050565b600660009054906101000a900473ffffffffffffffffffffffffffffffffffffffff1673ffffffffffffffffffffffffffffffffffffffff163373ffffffffffffffffffffffffffffffffffffffff161461142f576040517f08c379a000000000000000000000000000000000000000000000000000000000815260040180806020018281038252602681526020018061455a6026913960400191505060405180910390fd5b61145b600660009054906101000a900473ffffffffffffffffffffffffffffffffffffffff1682612881565b50565b60038054600181600116156101000203166002900480601f0160208091040260200160405190810160405280929190818152602001828054600181600116156101000203166002900480156114f45780601f106114c9576101008083540402835291602001916114f4565b820191906000526020600020905b8154815290600101906020018083116114d757829003601f168201915b505050505081565b600660009054906101000a900473ffffffffffffffffffffffffffffffffffffffff1673ffffffffffffffffffffffffffffffffffffffff163373ffffffffffffffffffffffffffffffffffffffff16146115a2576040517f08c379a000000000000000000000000000000000000000000000000000000000815260040180806020018281038252602681526020018061455a6026913960400191505060405180910390fd5b6115ab826129b4565b6115b58282612881565b5050565b600760009054906101000a900473ffffffffffffffffffffffffffffffffffffffff1673ffffffffffffffffffffffffffffffffffffffff163373ffffffffffffffffffffffffffffffffffffffff161461165f576040517f08c379a000000000000000000000000000000000000000000000000000000000815260040180806020018281038252602a815260200180614362602a913960400191505060405180910390fd5b6116ac82828080601f016020809104026020016040519081016040528093929190818152602001838380828437600081840152601f19601f82011690508083019250505050505050612afa565b5050565b606060026116bd83612b14565b604051602001808380546001816001161561010002031660029004801561171b5780601f106116f957610100808354040283529182019161171b565b820191906000526020600020905b815481529060010190602001808311611707575b505082805190602001908083835b6020831061174c5780518252602082019150602081019050602083039250611729565b6001836020036101000a038019825116818451168082178552505050505050905001807f2e6a736f6e000000000000000000000000000000000000000000000000000000815250600501925050506040516020818303038152906040529050919050565b6000600760009054906101000a900473ffffffffffffffffffffffffffffffffffffffff16905090565b826000611809600660009054906101000a900473ffffffffffffffffffffffffffffffffffffffff168361131d565b1161181357600080fd5b60008360096000878152602001908152602001600020540290506000600860009054906101000a900473ffffffffffffffffffffffffffffffffffffffff1673ffffffffffffffffffffffffffffffffffffffff166323b872dd33600660009054906101000a900473ffffffffffffffffffffffffffffffffffffffff16856040518463ffffffff1660e01b8152600401808473ffffffffffffffffffffffffffffffffffffffff1681526020018373ffffffffffffffffffffffffffffffffffffffff1681526020018281526020019350505050602060405180830381600087803b15801561190257600080fd5b505af1158015611916573d6000803e3d6000fd5b505050506040513d602081101561192c57600080fd5b81019080805190602001909291905050509050806119b2576040517f08c379a00000000000000000000000000000000000000000000000000000000081526004018080602001828103825260208152602001807f427579657220436f756c646e2774205472616e736665722043757272656e637981525060200191505060405180910390fd5b6119e0600660009054906101000a900473ffffffffffffffffffffffffffffffffffffffff16338888612c5e565b611a10600660009054906101000a900473ffffffffffffffffffffffffffffffffffffffff163388885a89612e52565b505050505050565b611aa533858580806020026020016040519081016040528093929190818152602001838360200280828437600081840152601f19601f82011690508083019250505050505050848480806020026020016040519081016040528093929190818152602001838360200280828437600081840152601f19601f82011690508083019250505050505050613062565b50505050565b600080611ab66141d2565b60046040518060400160405290816000820160009054906101000a900473ffffffffffffffffffffffffffffffffffffffff1673ffffffffffffffffffffffffffffffffffffffff1673ffffffffffffffffffffffffffffffffffffffff16815260200160018201548152505090508060000151611b556103e8611b478460200151886132d590919063ffffffff16565b61337890919063ffffffff16565b92509250509250929050565b8473ffffffffffffffffffffffffffffffffffffffff163373ffffffffffffffffffffffffffffffffffffffff161480611ba15750611ba0853361256d565b5b611bf6576040517f08c379a000000000000000000000000000000000000000000000000000000000815260040180806020018281038252602f815260200180614482602f913960400191505060405180910390fd5b600073ffffffffffffffffffffffffffffffffffffffff168473ffffffffffffffffffffffffffffffffffffffff161415611c7c576040517f08c379a000000000000000000000000000000000000000000000000000000000815260040180806020018281038252603081526020018061438c6030913960400191505060405180910390fd5b611c8885858585613407565b611c96858585855a86613769565b5050505050565b600660009054906101000a900473ffffffffffffffffffffffffffffffffffffffff1673ffffffffffffffffffffffffffffffffffffffff163373ffffffffffffffffffffffffffffffffffffffff1614611d43576040517f08c379a000000000000000000000000000000000000000000000000000000000815260040180806020018281038252602681526020018061455a6026913960400191505060405180910390fd5b80600860006101000a81548173ffffffffffffffffffffffffffffffffffffffff021916908373ffffffffffffffffffffffffffffffffffffffff16021790555050565b60006001600a5401905090565b600660009054906101000a900473ffffffffffffffffffffffffffffffffffffffff1673ffffffffffffffffffffffffffffffffffffffff163373ffffffffffffffffffffffffffffffffffffffff1614611e3a576040517f08c379a000000000000000000000000000000000000000000000000000000000815260040180806020018281038252602681526020018061455a6026913960400191505060405180910390fd5b611e68600660009054906101000a900473ffffffffffffffffffffffffffffffffffffffff168585846139fb565b81600960008681526020019081526020016000208190555083600a541015611e925783600a819055505b50505050565b6000600860009054906101000a900473ffffffffffffffffffffffffffffffffffffffff1673ffffffffffffffffffffffffffffffffffffffff166370a08231336040518263ffffffff1660e01b8152600401808273ffffffffffffffffffffffffffffffffffffffff16815260200191505060206040518083038186803b158015611f2357600080fd5b505afa158015611f37573d6000803e3d6000fd5b505050506040513d6020811015611f4d57600080fd5b8101908080519060200190929190505050905090565b60608151835114611fbf576040517f08c379a000000000000000000000000000000000000000000000000000000000815260040180806020018281038252602c81526020018061441d602c913960400191505060405180910390fd5b6060835167ffffffffffffffff81118015611fd957600080fd5b506040519080825280602002602001820160405280156120085781602001602082028036833780820191505090505b50905060005b84518110156120b25760008086838151811061202657fe5b602002602001015173ffffffffffffffffffffffffffffffffffffffff1673ffffffffffffffffffffffffffffffffffffffff168152602001908152602001600020600085838151811061207657fe5b602002602001015181526020019081526020016000205482828151811061209957fe5b602002602001018181525050808060010191505061200e565b508091505092915050565b600760009054906101000a900473ffffffffffffffffffffffffffffffffffffffff1673ffffffffffffffffffffffffffffffffffffffff163373ffffffffffffffffffffffffffffffffffffffff1614612163576040517f08c379a000000000000000000000000000000000000000000000000000000000815260040180806020018281038252602a815260200180614362602a913960400191505060405180910390fd5b6121b082828080601f016020809104026020016040519081016040528093929190818152602001838380828437600081840152601f19601f82011690508083019250505050505050613b4a565b5050565b6000600860009054906101000a900473ffffffffffffffffffffffffffffffffffffffff16905090565b60028054600181600116156101000203166002900480601f0160208091040260200160405190810160405280929190818152602001828054600181600116156101000203166002900480156122745780601f1061224957610100808354040283529160200191612274565b820191906000526020600020905b81548152906001019060200180831161225757829003601f168201915b505050505081565b600660009054906101000a900473ffffffffffffffffffffffffffffffffffffffff1673ffffffffffffffffffffffffffffffffffffffff163373ffffffffffffffffffffffffffffffffffffffff1614612322576040517f08c379a000000000000000000000000000000000000000000000000000000000815260040180806020018281038252602681526020018061455a6026913960400191505060405180910390fd5b612350600660009054906101000a900473ffffffffffffffffffffffffffffffffffffffff16858584613b64565b60005b84518110156123df5784818151811061236857fe5b6020026020010151600a5410156123945784818151811061238557fe5b6020026020010151600a819055505b8281815181106123a057fe5b6020026020010151600960008784815181106123b857fe5b60200260200101518152602001908152602001600020819055508080600101915050612353565b5050505050565b6000600660009054906101000a900473ffffffffffffffffffffffffffffffffffffffff16905090565b80600160003373ffffffffffffffffffffffffffffffffffffffff1673ffffffffffffffffffffffffffffffffffffffff16815260200190815260200160002060008473ffffffffffffffffffffffffffffffffffffffff1673ffffffffffffffffffffffffffffffffffffffff16815260200190815260200160002060006101000a81548160ff0219169083151502179055508173ffffffffffffffffffffffffffffffffffffffff163373ffffffffffffffffffffffffffffffffffffffff167f17307eab39ab6107e8899845ad3d59bd9653f200f220920489ca2b5937696c318360405180821515815260200191505060405180910390a35050565b61251a338383613de8565b5050565b600060096000838152602001908152602001600020549050919050565b60048060000160009054906101000a900473ffffffffffffffffffffffffffffffffffffffff16908060010154905082565b6000600160008473ffffffffffffffffffffffffffffffffffffffff1673ffffffffffffffffffffffffffffffffffffffff16815260200190815260200160002060008373ffffffffffffffffffffffffffffffffffffffff1673ffffffffffffffffffffffffffffffffffffffff16815260200190815260200160002060009054906101000a900460ff16905092915050565b8473ffffffffffffffffffffffffffffffffffffffff163373ffffffffffffffffffffffffffffffffffffffff1614806126415750612640853361256d565b5b612696576040517f08c379a000000000000000000000000000000000000000000000000000000000815260040180806020018281038252602a8152602001806142d9602a913960400191505060405180910390fd5b600073ffffffffffffffffffffffffffffffffffffffff168473ffffffffffffffffffffffffffffffffffffffff16141561271c576040517f08c379a000000000000000000000000000000000000000000000000000000000815260040180806020018281038252602b8152602001806142ae602b913960400191505060405180910390fd5b61272885858585612c5e565b612736858585855a86612e52565b5050505050565b600660009054906101000a900473ffffffffffffffffffffffffffffffffffffffff1673ffffffffffffffffffffffffffffffffffffffff163373ffffffffffffffffffffffffffffffffffffffff16146127e3576040517f08c379a000000000000000000000000000000000000000000000000000000000815260040180806020018281038252602681526020018061455a6026913960400191505060405180910390fd5b8060096000848152602001908152602001600020819055505050565b60007f2a55205a000000000000000000000000000000000000000000000000000000007bffffffffffffffffffffffffffffffffffffffffffffffffffffffff1916827bffffffffffffffffffffffffffffffffffffffffffffffffffffffff19161415612870576001905061287c565b61287982613f27565b90505b919050565b600073ffffffffffffffffffffffffffffffffffffffff168273ffffffffffffffffffffffffffffffffffffffff161415612907576040517f08c379a00000000000000000000000000000000000000000000000000000000081526004018080602001828103825260318152602001806143ec6031913960400191505060405180910390fd5b6103e8811115612962576040517f08c379a00000000000000000000000000000000000000000000000000000000081526004018080602001828103825260398152602001806144496039913960400191505060405180910390fd5b81600460000160006101000a81548173ffffffffffffffffffffffffffffffffffffffff021916908373ffffffffffffffffffffffffffffffffffffffff160217905550806004600101819055505050565b600073ffffffffffffffffffffffffffffffffffffffff168173ffffffffffffffffffffffffffffffffffffffff161415612a3a576040517f08c379a000000000000000000000000000000000000000000000000000000000815260040180806020018281038252602a815260200180614338602a913960400191505060405180910390fd5b80600660006101000a81548173ffffffffffffffffffffffffffffffffffffffff021916908373ffffffffffffffffffffffffffffffffffffffff1602179055508073ffffffffffffffffffffffffffffffffffffffff16600660009054906101000a900473ffffffffffffffffffffffffffffffffffffffff1673ffffffffffffffffffffffffffffffffffffffff167f8be0079c531659141344cd1fd0a4f28419497f9722a3daafe3b4186f6b6457e060405160405180910390a350565b8060039080519060200190612b10929190614202565b5050565b60606000821415612b5c576040518060400160405280600181526020017f30000000000000000000000000000000000000000000000000000000000000008152509050612c59565b6000829050600083905060005b60008314612b8b578080600101915050600a8381612b8357fe5b049250612b69565b60608167ffffffffffffffff81118015612ba457600080fd5b506040519080825280601f01601f191660200182016040528015612bd75781602001600182028036833780820191505090505b50905060006001830390505b60008414612c5057600a8481612bf557fe5b0660300160f81b82828060019003935081518110612c0f57fe5b60200101907effffffffffffffffffffffffffffffffffffffffffffffffffffffffffffff1916908160001a905350600a8481612c4857fe5b049350612be3565b81955050505050505b919050565b612cc0816000808773ffffffffffffffffffffffffffffffffffffffff1673ffffffffffffffffffffffffffffffffffffffff168152602001908152602001600020600085815260200190815260200160002054613fa990919063ffffffff16565b6000808673ffffffffffffffffffffffffffffffffffffffff1673ffffffffffffffffffffffffffffffffffffffff168152602001908152602001600020600084815260200190815260200160002081905550612d75816000808673ffffffffffffffffffffffffffffffffffffffff1673ffffffffffffffffffffffffffffffffffffffff16815260200190815260200160002060008581526020019081526020016000205461403290919063ffffffff16565b6000808573ffffffffffffffffffffffffffffffffffffffff1673ffffffffffffffffffffffffffffffffffffffff1681526020019081526020016000206000848152602001908152602001600020819055508273ffffffffffffffffffffffffffffffffffffffff168473ffffffffffffffffffffffffffffffffffffffff163373ffffffffffffffffffffffffffffffffffffffff167fc3d58168c5ae7397731d063d5bbf3d657854427343f4c083240f7aacaa2d0f628585604051808381526020018281526020019250505060405180910390a450505050565b612e718573ffffffffffffffffffffffffffffffffffffffff166140ba565b1561305a5760008573ffffffffffffffffffffffffffffffffffffffff1663f23a6e6184338a8989886040518763ffffffff1660e01b8152600401808673ffffffffffffffffffffffffffffffffffffffff1681526020018573ffffffffffffffffffffffffffffffffffffffff16815260200184815260200183815260200180602001828103825283818151815260200191508051906020019080838360005b83811015612f2d578082015181840152602081019050612f12565b50505050905090810190601f168015612f5a5780820380516001836020036101000a031916815260200191505b509650505050505050602060405180830381600088803b158015612f7d57600080fd5b5087f1158015612f91573d6000803e3d6000fd5b50505050506040513d6020811015612fa857600080fd5b8101908080519060200190929190505050905063f23a6e6160e01b7bffffffffffffffffffffffffffffffffffffffffffffffffffffffff1916817bffffffffffffffffffffffffffffffffffffffffffffffffffffffff191614613058576040517f08c379a000000000000000000000000000000000000000000000000000000000815260040180806020018281038252603a815260200180614520603a913960400191505060405180910390fd5b505b505050505050565b600082519050815181146130c1576040517f08c379a00000000000000000000000000000000000000000000000000000000081526004018080602001828103825260308152602001806143bc6030913960400191505060405180910390fd5b60005b818110156131c7576131548382815181106130db57fe5b60200260200101516000808873ffffffffffffffffffffffffffffffffffffffff1673ffffffffffffffffffffffffffffffffffffffff168152602001908152602001600020600087858151811061312f57fe5b6020026020010151815260200190815260200160002054613fa990919063ffffffff16565b6000808773ffffffffffffffffffffffffffffffffffffffff1673ffffffffffffffffffffffffffffffffffffffff16815260200190815260200160002060008684815181106131a057fe5b602002602001015181526020019081526020016000208190555080806001019150506130c4565b50600073ffffffffffffffffffffffffffffffffffffffff168473ffffffffffffffffffffffffffffffffffffffff163373ffffffffffffffffffffffffffffffffffffffff167f4a39dc06d4c0dbc64b70af90fd698a233a518aa5d07e595d983b8c0526c8f7fb8686604051808060200180602001838103835285818151815260200191508051906020019060200280838360005b8381101561327857808201518184015260208101905061325d565b50505050905001838103825284818151815260200191508051906020019060200280838360005b838110156132ba57808201518184015260208101905061329f565b5050505090500194505050505060405180910390a450505050565b6000808314156132e85760009050613372565b60008284029050828482816132f957fe5b041461336d576040517f08c379a00000000000000000000000000000000000000000000000000000000081526004018080602001828103825260168152602001807f536166654d617468236d756c3a204f564552464c4f570000000000000000000081525060200191505060405180910390fd5b809150505b92915050565b60008082116133ef576040517f08c379a000000000000000000000000000000000000000000000000000000000815260040180806020018281038252601e8152602001807f536166654d617468236469763a204449564953494f4e5f42595f5a45524f000081525060200191505060405180910390fd5b60008284816133fa57fe5b0490508091505092915050565b8051825114613461576040517f08c379a00000000000000000000000000000000000000000000000000000000081526004018080602001828103825260358152602001806143036035913960400191505060405180910390fd5b60008251905060005b8181101561365b576134fa83828151811061348157fe5b60200260200101516000808973ffffffffffffffffffffffffffffffffffffffff1673ffffffffffffffffffffffffffffffffffffffff16815260200190815260200160002060008785815181106134d557fe5b6020026020010151815260200190815260200160002054613fa990919063ffffffff16565b6000808873ffffffffffffffffffffffffffffffffffffffff1673ffffffffffffffffffffffffffffffffffffffff168152602001908152602001600020600086848151811061354657fe5b60200260200101518152602001908152602001600020819055506135e883828151811061356f57fe5b60200260200101516000808873ffffffffffffffffffffffffffffffffffffffff1673ffffffffffffffffffffffffffffffffffffffff16815260200190815260200160002060008785815181106135c357fe5b602002602001015181526020019081526020016000205461403290919063ffffffff16565b6000808773ffffffffffffffffffffffffffffffffffffffff1673ffffffffffffffffffffffffffffffffffffffff168152602001908152602001600020600086848151811061363457fe5b6020026020010151815260200190815260200160002081905550808060010191505061346a565b508373ffffffffffffffffffffffffffffffffffffffff168573ffffffffffffffffffffffffffffffffffffffff163373ffffffffffffffffffffffffffffffffffffffff167f4a39dc06d4c0dbc64b70af90fd698a233a518aa5d07e595d983b8c0526c8f7fb8686604051808060200180602001838103835285818151815260200191508051906020019060200280838360005b8381101561370b5780820151818401526020810190506136f0565b50505050905001838103825284818151815260200191508051906020019060200280838360005b8381101561374d578082015181840152602081019050613732565b5050505090500194505050505060405180910390a45050505050565b6137888573ffffffffffffffffffffffffffffffffffffffff166140ba565b156139f35760008573ffffffffffffffffffffffffffffffffffffffff1663bc197c8184338a8989886040518763ffffffff1660e01b8152600401808673ffffffffffffffffffffffffffffffffffffffff1681526020018573ffffffffffffffffffffffffffffffffffffffff168152602001806020018060200180602001848103845287818151815260200191508051906020019060200280838360005b83811015613843578082015181840152602081019050613828565b50505050905001848103835286818151815260200191508051906020019060200280838360005b8381101561388557808201518184015260208101905061386a565b50505050905001848103825285818151815260200191508051906020019080838360005b838110156138c45780820151818401526020810190506138a9565b50505050905090810190601f1680156138f15780820380516001836020036101000a031916815260200191505b5098505050505050505050602060405180830381600088803b15801561391657600080fd5b5087f115801561392a573d6000803e3d6000fd5b50505050506040513d602081101561394157600080fd5b8101908080519060200190929190505050905063bc197c8160e01b7bffffffffffffffffffffffffffffffffffffffffffffffffffffffff1916817bffffffffffffffffffffffffffffffffffffffffffffffffffffffff1916146139f1576040517f08c379a000000000000000000000000000000000000000000000000000000000815260040180806020018281038252603f8152602001806144e1603f913960400191505060405180910390fd5b505b505050505050565b613a5d826000808773ffffffffffffffffffffffffffffffffffffffff1673ffffffffffffffffffffffffffffffffffffffff16815260200190815260200160002060008681526020019081526020016000205461403290919063ffffffff16565b6000808673ffffffffffffffffffffffffffffffffffffffff1673ffffffffffffffffffffffffffffffffffffffff1681526020019081526020016000206000858152602001908152602001600020819055508373ffffffffffffffffffffffffffffffffffffffff16600073ffffffffffffffffffffffffffffffffffffffff163373ffffffffffffffffffffffffffffffffffffffff167fc3d58168c5ae7397731d063d5bbf3d657854427343f4c083240f7aacaa2d0f628686604051808381526020018281526020019250505060405180910390a4613b4460008585855a86612e52565b50505050565b8060029080519060200190613b60929190614202565b5050565b8151835114613bbe576040517f08c379a00000000000000000000000000000000000000000000000000000000081526004018080602001828103825260308152602001806144b16030913960400191505060405180910390fd5b60008351905060005b81811015613cca57613c57848281518110613bde57fe5b60200260200101516000808973ffffffffffffffffffffffffffffffffffffffff1673ffffffffffffffffffffffffffffffffffffffff1681526020019081526020016000206000888581518110613c3257fe5b602002602001015181526020019081526020016000205461403290919063ffffffff16565b6000808873ffffffffffffffffffffffffffffffffffffffff1673ffffffffffffffffffffffffffffffffffffffff1681526020019081526020016000206000878481518110613ca357fe5b60200260200101518152602001908152602001600020819055508080600101915050613bc7565b508473ffffffffffffffffffffffffffffffffffffffff16600073ffffffffffffffffffffffffffffffffffffffff163373ffffffffffffffffffffffffffffffffffffffff167f4a39dc06d4c0dbc64b70af90fd698a233a518aa5d07e595d983b8c0526c8f7fb8787604051808060200180602001838103835285818151815260200191508051906020019060200280838360005b83811015613d7b578082015181840152602081019050613d60565b50505050905001838103825284818151815260200191508051906020019060200280838360005b83811015613dbd578082015181840152602081019050613da2565b5050505090500194505050505060405180910390a4613de160008686865a87613769565b5050505050565b613e4a816000808673ffffffffffffffffffffffffffffffffffffffff1673ffffffffffffffffffffffffffffffffffffffff168152602001908152602001600020600085815260200190815260200160002054613fa990919063ffffffff16565b6000808573ffffffffffffffffffffffffffffffffffffffff1673ffffffffffffffffffffffffffffffffffffffff168152602001908152602001600020600084815260200190815260200160002081905550600073ffffffffffffffffffffffffffffffffffffffff168373ffffffffffffffffffffffffffffffffffffffff163373ffffffffffffffffffffffffffffffffffffffff167fc3d58168c5ae7397731d063d5bbf3d657854427343f4c083240f7aacaa2d0f628585604051808381526020018281526020019250505060405180910390a4505050565b60007f0e89341c000000000000000000000000000000000000000000000000000000007bffffffffffffffffffffffffffffffffffffffffffffffffffffffff1916827bffffffffffffffffffffffffffffffffffffffffffffffffffffffff19161415613f985760019050613fa4565b613fa1826140ff565b90505b919050565b600082821115614021576040517f08c379a00000000000000000000000000000000000000000000000000000000081526004018080602001828103825260178152602001807f536166654d617468237375623a20554e444552464c4f5700000000000000000081525060200191505060405180910390fd5b600082840390508091505092915050565b6000808284019050838110156140b0576040517f08c379a00000000000000000000000000000000000000000000000000000000081526004018080602001828103825260168152602001807f536166654d617468236164643a204f564552464c4f570000000000000000000081525060200191505060405180910390fd5b8091505092915050565b600080823f90506000801b81141580156140f757507fc5d2460186f7233c927e7db2dcc703c0e500b653ca82273b7bfad8045d85a47060001b8114155b915050919050565b60007fd9b67a26000000000000000000000000000000000000000000000000000000007bffffffffffffffffffffffffffffffffffffffffffffffffffffffff1916827bffffffffffffffffffffffffffffffffffffffffffffffffffffffff19161415614170576001905061417c565b61417982614181565b90505b919050565b60006301ffc9a760e01b7bffffffffffffffffffffffffffffffffffffffffffffffffffffffff1916827bffffffffffffffffffffffffffffffffffffffffffffffffffffffff1916149050919050565b6040518060400160405280600073ffffffffffffffffffffffffffffffffffffffff168152602001600081525090565b828054600181600116156101000203166002900490600052602060002090601f016020900481019282614238576000855561427f565b82601f1061425157805160ff191683800117855561427f565b8280016001018555821561427f579182015b8281111561427e578251825591602001919060010190614263565b5b50905061428c9190614290565b5090565b5b808211156142a9576000816000905550600101614291565b509056fe4552433131353523736166655472616e7366657246726f6d3a20494e56414c49445f524543495049454e544552433131353523736166655472616e7366657246726f6d3a20494e56414c49445f4f50455241544f5245524331313535235f7361666542617463685472616e7366657246726f6d3a20494e56414c49445f4152524159535f4c454e4754484f776e61626c65237472616e736665724f776e6572736869703a20494e56414c49445f414444524553534f776e61626c65236f6e6c7943726561746f723a2053454e4445525f49535f4e4f545f43524541544f5245524331313535237361666542617463685472616e7366657246726f6d3a20494e56414c49445f524543495049454e54455243313135354d696e744275726e2362617463684275726e3a20494e56414c49445f4152524159535f4c454e47544845524332393831476c6f62616c235f736574476c6f62616c526f79616c74793a20524543495049454e545f49535f307830455243313135352362616c616e63654f6642617463683a20494e56414c49445f41525241595f4c454e47544845524332393831476c6f62616c235f736574476c6f62616c526f79616c74793a204645455f49535f41424f56455f3130305f50455243454e5445524331313535237361666542617463685472616e7366657246726f6d3a20494e56414c49445f4f50455241544f52455243313135354d696e744275726e2362617463684d696e743a20494e56414c49445f4152524159535f4c454e47544845524331313535235f63616c6c6f6e45524331313535426174636852656365697665643a20494e56414c49445f4f4e5f524543454956455f4d45535341474545524331313535235f63616c6c6f6e4552433131353552656365697665643a20494e56414c49445f4f4e5f524543454956455f4d4553534147454f776e61626c65236f6e6c794f776e65723a2053454e4445525f49535f4e4f545f4f574e4552a2646970667358221220f833dbe22792cd7b5f01c0185159a914ce38a5853ce34bb0447c0f72141febac64736f6c6343000704003345524332393831476c6f62616c235f736574476c6f62616c526f79616c74793a20524543495049454e545f49535f30783045524332393831476c6f62616c235f736574476c6f62616c526f79616c74793a204645455f49535f41424f56455f3130305f50455243454e54",
  "immutableReferences": {},
  "source": "// SPDX-License-Identifier: UNLICENSED\npragma solidity ^0.7.4;\n\nimport \"@0xsequence/erc-1155/contracts/tokens/ERC1155/ERC1155MintBurn.sol\";\nimport \"@0xsequence/erc-1155/contracts/tokens/ERC1155/ERC1155Metadata.sol\";\nimport \"@0xsequence/erc-1155/contracts/tokens/ERC2981/ERC2981Global.sol\";\nimport \"@0xsequence/erc-1155/contracts/utils/SafeMath.sol\";\nimport \"./utils/Ownable.sol\";\nimport \"./utils/IERC20.sol\";\n\ncontract ArtistCollection is ERC1155MintBurn, ERC1155Metadata, ERC2981Global, Ownable{\n    using SafeMath for uint256;\n\n    /***********************************|\n    |             Variables             |\n    |__________________________________*/\n    IERC20 internal currency;\n    mapping(uint256 => uint256) internal tokenPrices; // Stores the Price\n    uint256 internal currTokenID;\n    /***********************************|\n    |             Constuctor            |\n    |__________________________________*/\n    constructor(string memory _name, string memory _baseURI, address _artistAddr, uint256 _royaltyBasisPoints, address _currency) \n                ERC1155Metadata(_name, _baseURI)\n                Ownable(msg.sender, _artistAddr) \n                {\n                    _setGlobalRoyaltyInfo(_artistAddr, _royaltyBasisPoints);\n                    currency = IERC20(_currency);\n                    currTokenID = 0;\n                }\n\n    /***********************************|\n    |      Receiver Method Handler      |\n    |__________________________________*/\n    /**\n    * @notice Prevents receiving Ether or calls to unsuported methods\n    */\n    fallback () external {\n        revert(\"UNSUPPORTED_METHOD\");\n    }\n\n    // sets token id base uri... \n    function setBaseURI(string calldata _newuri) public onlyCreator {\n        _setBaseMetadataURI(_newuri);\n    }\n\n    function setContractName(string calldata _newName) public onlyCreator {\n        _setContractName(_newName);\n    }\n\n    function transferOwnership(address _newOwner, uint256 _royaltyBasisPoints) public onlyOwner {\n        _transferOwnership(_newOwner);\n        _setGlobalRoyaltyInfo(_newOwner, _royaltyBasisPoints);\n    }\n\n    /***********************************|\n    |         Getter Functions          |\n    |__________________________________*/\n\n    function getTokenPrice(uint256 _id) external view returns(uint256) {\n        return tokenPrices[_id];\n    }\n\n    function getCurrency() external view returns(address) {\n        return address(currency);\n    }\n\n    function setCurrency(address _currency) external onlyOwner {\n        currency = IERC20(_currency);\n    }\n    \n    function currenctyBalance() external view returns(uint256){\n        return currency.balanceOf(msg.sender);\n    }\n\n    // sets price if it was not set... while minting it can be reset\n    function setPrice(uint256 _id, uint256 _price) external onlyOwner {\n        tokenPrices[_id] = _price;\n    }\n    /***********************************|\n    |         Market Functions          |\n    |__________________________________*/\n    modifier tokenAvailable(uint256 _id) {\n        require(balanceOf(owner, _id)>0);\n        _;\n    }\n\n    function buy(uint256 _id, uint256 _amount, bytes memory _data) external \n        tokenAvailable(_id)\n    {\n        uint256 totalPrice = tokenPrices[_id] * _amount;\n        bool _success = currency.transferFrom(msg.sender,owner,totalPrice);\n        require(_success, \"Buyer Couldn't Transfer Currency\");\n        _safeTransferFrom(owner, msg.sender, _id, _amount);\n        _callonERC1155Received(owner, msg.sender, _id, _amount, gasleft(), _data);\n    }\n\n\n    /***********************************|\n    |    Royalty Management Methods     |\n    |__________________________________*/\n    /**\n    * @notice Will set the basis point and royalty recipient that is applied to all Skyweaver assets\n    * @param _royaltyBasisPoints Basis points with 3 decimals representing the fee %\n    *        e.g. a fee of 2% would be 20 (i.e. 20 / 1000 == 0.02, or 2%)\n    */\n    function setGlobalRoyaltyInfo(uint256 _royaltyBasisPoints) external onlyOwner() {\n        _setGlobalRoyaltyInfo(owner, _royaltyBasisPoints);\n    }\n\n    /***********************************|\n    |         Minting Methods           |\n    |__________________________________*/\n    function mint(uint256 id, uint256 amount, uint256 price, bytes memory data)\n        public\n        onlyOwner\n    {\n        _mint(owner, id, amount, data);\n        tokenPrices[id] = price;\n        if (currTokenID<id){\n            currTokenID = id;\n        }\n    }\n\n    function mintBatch(uint256[] memory ids, uint256[] memory amounts, uint256[] memory prices, bytes memory data)\n        public\n        onlyOwner\n    {\n        _batchMint(owner, ids, amounts, data);\n        uint i=0;\n        for (i = 0; i < ids.length; i++) {\n            if (currTokenID<ids[i]){\n                currTokenID=ids[i];\n            }\n            tokenPrices[ids[i]] = prices[i];\n        }\n    }   \n\n    function getNextTokenID() external view returns(uint256) {\n        return currTokenID+1;\n    }\n\n    /***********************************|\n    |          Burning Functions        |\n    |__________________________________*/\n\n    /**\n    * @notice Burn _amount of tokens of a given id from msg.sender\n    * @dev This will not change the current issuance tracked in _supplyManagerAddr.\n    * @param _id     Asset id to burn\n    * @param _amount The amount to be burn\n    */\n    function burn(\n        uint256 _id,\n        uint256 _amount)\n        external\n    {\n        _burn(msg.sender, _id, _amount);\n    }\n\n    /**\n    * @notice Burn _amounts of tokens of given ids from msg.sender\n    * @dev This will not change the current issuance tracked in _supplyManagerAddr.\n    * @param _ids     Asset id to burn\n    * @param _amounts The amount to be burn\n    */\n    function batchBurn(\n        uint256[] calldata _ids,\n        uint256[] calldata _amounts)\n        external\n    {\n        _batchBurn(msg.sender, _ids, _amounts);\n    }\n\n    /***********************************|\n    |          ERC165 Functions         |\n    |__________________________________*/\n    /**\n    * @notice Query if a contract implements an interface\n    * @param _interfaceID  The interface identifier, as specified in ERC-165\n    * @return `true` if the contract implements `_interfaceID`\n    */\n    function supportsInterface(bytes4 _interfaceID) public override(ERC1155, ERC1155Metadata, ERC2981Global) virtual pure returns (bool) {\n        return super.supportsInterface(_interfaceID);\n    }\n}\n",
  "sourcePath": "/Users/shubhaankar/github.com/solo-nw/contracts/contracts/Artist.sol",
  "compiler": {
    "name": "solc",
    "version": "0.7.4+commit.3f05b770.Emscripten.clang"
  },
  "schemaVersion": "3.4.11",
  "updatedAt": "2022-12-31T09:03:22.316Z",
  "devdoc": {
    "kind": "dev",
    "methods": {
      "balanceOf(address,uint256)": {
        "params": {
          "_id": "ID of the Token",
          "_owner": "The address of the token holder"
        },
        "returns": {
          "_0": "The _owner's balance of the Token type requested"
        }
      },
      "balanceOfBatch(address[],uint256[])": {
        "params": {
          "_ids": "ID of the Tokens",
          "_owners": "The addresses of the token holders"
        },
        "returns": {
          "_0": "The _owner's balance of the Token types requested (i.e. balance for each (owner, id) pair)"
        }
      },
      "batchBurn(uint256[],uint256[])": {
        "details": "This will not change the current issuance tracked in _supplyManagerAddr.",
        "params": {
          "_amounts": "The amount to be burn",
          "_ids": "Asset id to burn"
        }
      },
      "burn(uint256,uint256)": {
        "details": "This will not change the current issuance tracked in _supplyManagerAddr.",
        "params": {
          "_amount": "The amount to be burn",
          "_id": "Asset id to burn"
        }
      },
      "isApprovedForAll(address,address)": {
        "params": {
          "_operator": "Address of authorized operator",
          "_owner": "The owner of the Tokens"
        },
        "returns": {
          "isOperator": "True if the operator is approved, false if not"
        }
      },
      "royaltyInfo(uint256,uint256)": {
        "params": {
          "_saleCost": "- the sale cost of the NFT asset specified by _tokenId"
        },
        "returns": {
          "receiver": "- address of who should be sent the royalty payment",
          "royaltyAmount": "- the royalty payment amount for _salePrice"
        }
      },
      "safeBatchTransferFrom(address,address,uint256[],uint256[],bytes)": {
        "params": {
          "_amounts": "Transfer amounts per token type",
          "_data": "Additional data with no specified format, sent in call to `_to`",
          "_from": "Source addresses",
          "_ids": "IDs of each token type",
          "_to": "Target addresses"
        }
      },
      "safeTransferFrom(address,address,uint256,uint256,bytes)": {
        "params": {
          "_amount": "Transfered amount",
          "_data": "Additional data with no specified format, sent in call to `_to`",
          "_from": "Source address",
          "_id": "ID of the token type",
          "_to": "Target address"
        }
      },
      "setApprovalForAll(address,bool)": {
        "params": {
          "_approved": "True if the operator is approved, false to revoke approval",
          "_operator": "Address to add to the set of authorized operators"
        }
      },
      "setGlobalRoyaltyInfo(uint256)": {
        "params": {
          "_royaltyBasisPoints": "Basis points with 3 decimals representing the fee %        e.g. a fee of 2% would be 20 (i.e. 20 / 1000 == 0.02, or 2%)"
        }
      },
      "supportsInterface(bytes4)": {
        "params": {
          "_interfaceID": "The interface identifier, as specified in ERC-165"
        },
        "returns": {
          "_0": "`true` if the contract implements `_interfaceID`"
        }
      },
      "uri(uint256)": {
        "details": "URIs are defined in RFC 3986.      URIs are assumed to be deterministically generated based on token ID",
        "returns": {
          "_0": "URI string"
        }
      }
    },
    "version": 1
  },
  "userdoc": {
    "kind": "user",
    "methods": {
      "balanceOf(address,uint256)": {
        "notice": "Get the balance of an account's Tokens"
      },
      "balanceOfBatch(address[],uint256[])": {
        "notice": "Get the balance of multiple account/token pairs"
      },
      "batchBurn(uint256[],uint256[])": {
        "notice": "Burn _amounts of tokens of given ids from msg.sender"
      },
      "burn(uint256,uint256)": {
        "notice": "Burn _amount of tokens of a given id from msg.sender"
      },
      "isApprovedForAll(address,address)": {
        "notice": "Queries the approval status of an operator for a given owner"
      },
      "royaltyInfo(uint256,uint256)": {
        "notice": "Called with the sale price to determine how much royalty is owed and to whom."
      },
      "safeBatchTransferFrom(address,address,uint256[],uint256[],bytes)": {
        "notice": "Send multiple types of Tokens from the _from address to the _to address (with safety call)"
      },
      "safeTransferFrom(address,address,uint256,uint256,bytes)": {
        "notice": "Transfers amount amount of an _id from the _from address to the _to address specified"
      },
      "setApprovalForAll(address,bool)": {
        "notice": "Enable or disable approval for a third party (\"operator\") to manage all of caller's tokens"
      },
      "setGlobalRoyaltyInfo(uint256)": {
        "notice": "Will set the basis point and royalty recipient that is applied to all Skyweaver assets"
      },
      "supportsInterface(bytes4)": {
        "notice": "Query if a contract implements an interface"
      },
      "uri(uint256)": {
        "notice": "A distinct Uniform Resource Identifier (URI) for a given token."
      }
    },
    "version": 1
  }
}