{
  "contractName": "Deployer",
  "abi": [
    {
      "inputs": [],
      "stateMutability": "nonpayable",
      "type": "constructor"
    },
    {
      "anonymous": false,
      "inputs": [
        {
          "indexed": true,
          "internalType": "address",
          "name": "previousOwner",
          "type": "address"
        },
        {
          "indexed": true,
          "internalType": "address",
          "name": "newOwner",
          "type": "address"
        }
      ],
      "name": "OwnershipTransferred",
      "type": "event"
    },
    {
      "inputs": [],
      "name": "getCreator",
      "outputs": [
        {
          "internalType": "address",
          "name": "",
          "type": "address"
        }
      ],
      "stateMutability": "view",
      "type": "function"
    },
    {
      "inputs": [],
      "name": "getOwner",
      "outputs": [
        {
          "internalType": "address",
          "name": "",
          "type": "address"
        }
      ],
      "stateMutability": "view",
      "type": "function"
    },
    {
      "inputs": [
        {
          "internalType": "string",
          "name": "_collectionName",
          "type": "string"
        },
        {
          "internalType": "string",
          "name": "_baseURI",
          "type": "string"
        },
        {
          "internalType": "address",
          "name": "_artistAddr",
          "type": "address"
        },
        {
          "internalType": "uint256",
          "name": "_royaltyBasisPoints",
          "type": "uint256"
        },
        {
          "internalType": "address",
          "name": "_currency",
          "type": "address"
        }
      ],
      "name": "deploy",
      "outputs": [],
      "stateMutability": "nonpayable",
      "type": "function"
    },
    {
      "inputs": [
        {
          "internalType": "string",
          "name": "_collectionName",
          "type": "string"
        },
        {
          "internalType": "string",
          "name": "_baseURI",
          "type": "string"
        },
        {
          "internalType": "address",
          "name": "_artistAddr",
          "type": "address"
        },
        {
          "internalType": "uint256",
          "name": "_royaltyBasisPoints",
          "type": "uint256"
        },
        {
          "internalType": "address",
          "name": "_currency",
          "type": "address"
        }
      ],
      "name": "forceDeploy",
      "outputs": [],
      "stateMutability": "nonpayable",
      "type": "function"
    },
    {
      "inputs": [
        {
          "internalType": "address[]",
          "name": "_artistAddrs",
          "type": "address[]"
        }
      ],
      "name": "getAllCollection",
      "outputs": [
        {
          "internalType": "address[]",
          "name": "",
          "type": "address[]"
        }
      ],
      "stateMutability": "view",
      "type": "function"
    },
    {
      "inputs": [
        {
          "internalType": "address",
          "name": "_artistAddr",
          "type": "address"
        }
      ],
      "name": "getArtistCollection",
      "outputs": [
        {
          "internalType": "address",
          "name": "",
          "type": "address"
        }
      ],
      "stateMutability": "view",
      "type": "function"
    }
  ],
  "bytecode": "0x608060405234801561001057600080fd5b503333806000806101000a81548173ffffffffffffffffffffffffffffffffffffffff021916908373ffffffffffffffffffffffffffffffffffffffff16021790555081600160006101000a81548173ffffffffffffffffffffffffffffffffffffffff021916908373ffffffffffffffffffffffffffffffffffffffff1602179055508073ffffffffffffffffffffffffffffffffffffffff16600073ffffffffffffffffffffffffffffffffffffffff167f8be0079c531659141344cd1fd0a4f28419497f9722a3daafe3b4186f6b6457e060405160405180910390a3505061580b806101006000396000f3fe60806040523480156200001157600080fd5b50600436106200006a5760003560e01c80630ee2cb10146200006f5780631784e96414620000a557806350342a0514620001ba578063893d20e8146200035f57806397799c6b1462000395578063c11c065c146200053a575b600080fd5b62000079620005ab565b604051808273ffffffffffffffffffffffffffffffffffffffff16815260200191505060405180910390f35b6200016160048036036020811015620000bd57600080fd5b8101908080359060200190640100000000811115620000db57600080fd5b820183602082011115620000ee57600080fd5b803590602001918460208302840111640100000000831117156200011157600080fd5b919080806020026020016040519081016040528093929190818152602001838360200280828437600081840152601f19601f820116905080830192505050505050509192919290505050620005d5565b6040518080602001828103825283818151815260200191508051906020019060200280838360005b83811015620001a657808201518184015260208101905062000189565b505050509050019250505060405180910390f35b6200035d600480360360a0811015620001d257600080fd5b8101908080359060200190640100000000811115620001f057600080fd5b8201836020820111156200020357600080fd5b803590602001918460018302840111640100000000831117156200022657600080fd5b91908080601f016020809104026020016040519081016040528093929190818152602001838380828437600081840152601f19601f820116905080830192505050505050509192919290803590602001906401000000008111156200028a57600080fd5b8201836020820111156200029d57600080fd5b80359060200191846001830284011164010000000083111715620002c057600080fd5b91908080601f016020809104026020016040519081016040528093929190818152602001838380828437600081840152601f19601f820116905080830192505050505050509192919290803573ffffffffffffffffffffffffffffffffffffffff16906020019092919080359060200190929190803573ffffffffffffffffffffffffffffffffffffffff169060200190929190505050620006b8565b005b620003696200093d565b604051808273ffffffffffffffffffffffffffffffffffffffff16815260200191505060405180910390f35b62000538600480360360a0811015620003ad57600080fd5b8101908080359060200190640100000000811115620003cb57600080fd5b820183602082011115620003de57600080fd5b803590602001918460018302840111640100000000831117156200040157600080fd5b91908080601f016020809104026020016040519081016040528093929190818152602001838380828437600081840152601f19601f820116905080830192505050505050509192919290803590602001906401000000008111156200046557600080fd5b8201836020820111156200047857600080fd5b803590602001918460018302840111640100000000831117156200049b57600080fd5b91908080601f016020809104026020016040519081016040528093929190818152602001838380828437600081840152601f19601f820116905080830192505050505050509192919290803573ffffffffffffffffffffffffffffffffffffffff16906020019092919080359060200190929190803573ffffffffffffffffffffffffffffffffffffffff16906020019092919050505062000966565b005b6200057f600480360360208110156200055257600080fd5b81019080803573ffffffffffffffffffffffffffffffffffffffff16906020019092919050505062000c2b565b604051808273ffffffffffffffffffffffffffffffffffffffff16815260200191505060405180910390f35b6000600160009054906101000a900473ffffffffffffffffffffffffffffffffffffffff16905090565b60608060005b8351811015620006ae5760026000858381518110620005f657fe5b602002602001015173ffffffffffffffffffffffffffffffffffffffff1673ffffffffffffffffffffffffffffffffffffffff16815260200190815260200160002060009054906101000a900473ffffffffffffffffffffffffffffffffffffffff168282815181106200066657fe5b602002602001019073ffffffffffffffffffffffffffffffffffffffff16908173ffffffffffffffffffffffffffffffffffffffff16815250508080600101915050620005db565b5080915050919050565b600160009054906101000a900473ffffffffffffffffffffffffffffffffffffffff1673ffffffffffffffffffffffffffffffffffffffff163373ffffffffffffffffffffffffffffffffffffffff161462000760576040517f08c379a000000000000000000000000000000000000000000000000000000000815260040180806020018281038252602a815260200180620057ac602a913960400191505060405180910390fd5b60008585858585604051620007759062000c94565b8080602001806020018673ffffffffffffffffffffffffffffffffffffffff1681526020018581526020018473ffffffffffffffffffffffffffffffffffffffff168152602001838103835288818151815260200191508051906020019080838360005b83811015620007f6578082015181840152602081019050620007d9565b50505050905090810190601f168015620008245780820380516001836020036101000a031916815260200191505b50838103825287818151815260200191508051906020019080838360005b838110156200085f57808201518184015260208101905062000842565b50505050905090810190601f1680156200088d5780820380516001836020036101000a031916815260200191505b50975050505050505050604051809103906000f080158015620008b4573d6000803e3d6000fd5b50905080600260008673ffffffffffffffffffffffffffffffffffffffff1673ffffffffffffffffffffffffffffffffffffffff16815260200190815260200160002060006101000a81548173ffffffffffffffffffffffffffffffffffffffff021916908373ffffffffffffffffffffffffffffffffffffffff160217905550505050505050565b60008060009054906101000a900473ffffffffffffffffffffffffffffffffffffffff16905090565b82600073ffffffffffffffffffffffffffffffffffffffff16600260008373ffffffffffffffffffffffffffffffffffffffff1673ffffffffffffffffffffffffffffffffffffffff16815260200190815260200160002060009054906101000a900473ffffffffffffffffffffffffffffffffffffffff1673ffffffffffffffffffffffffffffffffffffffff161462000a4d576040517f08c379a00000000000000000000000000000000000000000000000000000000081526004018080602001828103825260228152602001806200578a6022913960400191505060405180910390fd5b6000868686868660405162000a629062000c94565b8080602001806020018673ffffffffffffffffffffffffffffffffffffffff1681526020018581526020018473ffffffffffffffffffffffffffffffffffffffff168152602001838103835288818151815260200191508051906020019080838360005b8381101562000ae357808201518184015260208101905062000ac6565b50505050905090810190601f16801562000b115780820380516001836020036101000a031916815260200191505b50838103825287818151815260200191508051906020019080838360005b8381101562000b4c57808201518184015260208101905062000b2f565b50505050905090810190601f16801562000b7a5780820380516001836020036101000a031916815260200191505b50975050505050505050604051809103906000f08015801562000ba1573d6000803e3d6000fd5b50905080600260008773ffffffffffffffffffffffffffffffffffffffff1673ffffffffffffffffffffffffffffffffffffffff16815260200190815260200160002060006101000a81548173ffffffffffffffffffffffffffffffffffffffff021916908373ffffffffffffffffffffffffffffffffffffffff16021790555050505050505050565b6000600260008373ffffffffffffffffffffffffffffffffffffffff1673ffffffffffffffffffffffffffffffffffffffff16815260200190815260200160002060009054906101000a900473ffffffffffffffffffffffffffffffffffffffff169050919050565b614ae78062000ca38339019056fe60806040523480156200001157600080fd5b5060405162004ae738038062004ae7833981810160405260a08110156200003757600080fd5b81019080805160405193929190846401000000008211156200005857600080fd5b838201915060208201858111156200006f57600080fd5b82518660018202830111640100000000821117156200008d57600080fd5b8083526020830192505050908051906020019080838360005b83811015620000c3578082015181840152602081019050620000a6565b50505050905090810190601f168015620000f15780820380516001836020036101000a031916815260200191505b50604052602001805160405193929190846401000000008211156200011557600080fd5b838201915060208201858111156200012c57600080fd5b82518660018202830111640100000000821117156200014a57600080fd5b8083526020830192505050908051906020019080838360005b838110156200018057808201518184015260208101905062000163565b50505050905090810190601f168015620001ae5780820380516001836020036101000a031916815260200191505b50604052602001805190602001909291908051906020019092919080519060200190929190505050338386868160039080519060200190620001f292919062000482565b5080600290805190602001906200020b92919062000482565b50505080600660006101000a81548173ffffffffffffffffffffffffffffffffffffffff021916908373ffffffffffffffffffffffffffffffffffffffff16021790555081600760006101000a81548173ffffffffffffffffffffffffffffffffffffffff021916908373ffffffffffffffffffffffffffffffffffffffff1602179055508073ffffffffffffffffffffffffffffffffffffffff16600073ffffffffffffffffffffffffffffffffffffffff167f8be0079c531659141344cd1fd0a4f28419497f9722a3daafe3b4186f6b6457e060405160405180910390a35050620002ff83836200034b60201b60201c565b80600860006101000a81548173ffffffffffffffffffffffffffffffffffffffff021916908373ffffffffffffffffffffffffffffffffffffffff160217905550505050505062000538565b600073ffffffffffffffffffffffffffffffffffffffff168273ffffffffffffffffffffffffffffffffffffffff161415620003d3576040517f08c379a000000000000000000000000000000000000000000000000000000000815260040180806020018281038252603181526020018062004a7d6031913960400191505060405180910390fd5b6103e881111562000430576040517f08c379a000000000000000000000000000000000000000000000000000000000815260040180806020018281038252603981526020018062004aae6039913960400191505060405180910390fd5b81600460000160006101000a81548173ffffffffffffffffffffffffffffffffffffffff021916908373ffffffffffffffffffffffffffffffffffffffff160217905550806004600101819055505050565b828054600181600116156101000203166002900490600052602060002090601f016020900481019282620004ba576000855562000506565b82601f10620004d557805160ff191683800117855562000506565b8280016001018555821562000506579182015b8281111562000505578251825591602001919060010190620004e8565b5b50905062000515919062000519565b5090565b5b80821115620005345760008160009055506001016200051a565b5090565b61453580620005486000396000f3fe608060405234801561001057600080fd5b50600436106101c75760003560e01c80634c6af17c116100f9578063a22cb46511610097578063c9823cc611610071578063c9823cc6146110f8578063e985e9c514611133578063f242432a146111ad578063f7d97577146112bc576101c8565b8063a22cb4651461102e578063b390c0ab1461107e578063c457fb37146110b6576101c8565b80636945c1fd116100d35780636945c1fd14610ccc5780636c0360eb14610d0057806387fb8e4814610d83578063893d20e814610ffa576101c8565b80634c6af17c14610a945780634e1273f414610ab257806355f804b314610c53576101c8565b80630ee2cb10116101665780632a55205a116101405780632a55205a146106eb5780632eb2c2d6146107545780632f84c391146109775780634a9eee69146109bb576101c8565b80630ee2cb101461051a5780631efd73a51461054e57806320ec271b1461061d576101c8565b806306fdde03116101a257806306fdde03146103295780630a276680146103ac5780630b5ee006146103fa5780630e89341c14610473576101c8565b8062fdd58e1461023657806301ffc9a714610298578063045a1e99146102fb576101c8565b5b6040517f08c379a00000000000000000000000000000000000000000000000000000000081526004018080602001828103825260128152602001807f554e535550504f525445445f4d4554484f44000000000000000000000000000081525060200191505060405180910390fd5b6102826004803603604081101561024c57600080fd5b81019080803573ffffffffffffffffffffffffffffffffffffffff169060200190929190803590602001909291905050506112f4565b6040518082815260200191505060405180910390f35b6102e3600480360360208110156102ae57600080fd5b8101908080357bffffffffffffffffffffffffffffffffffffffffffffffffffffffff1916906020019092919050505061134e565b60405180821515815260200191505060405180910390f35b6103276004803603602081101561031157600080fd5b8101908080359060200190929190505050611360565b005b610331611435565b6040518080602001828103825283818151815260200191508051906020019080838360005b83811015610371578082015181840152602081019050610356565b50505050905090810190601f16801561039e5780820380516001836020036101000a031916815260200191505b509250505060405180910390f35b6103f8600480360360408110156103c257600080fd5b81019080803573ffffffffffffffffffffffffffffffffffffffff169060200190929190803590602001909291905050506114d3565b005b6104716004803603602081101561041057600080fd5b810190808035906020019064010000000081111561042d57600080fd5b82018360208201111561043f57600080fd5b8035906020019184600183028401116401000000008311171561046157600080fd5b9091929391929390505050611590565b005b61049f6004803603602081101561048957600080fd5b8101908080359060200190929190505050611687565b6040518080602001828103825283818151815260200191508051906020019080838360005b838110156104df5780820151818401526020810190506104c4565b50505050905090810190601f16801561050c5780820380516001836020036101000a031916815260200191505b509250505060405180910390f35b610522611787565b604051808273ffffffffffffffffffffffffffffffffffffffff16815260200191505060405180910390f35b61061b6004803603606081101561056457600080fd5b8101908080359060200190929190803590602001909291908035906020019064010000000081111561059557600080fd5b8201836020820111156105a757600080fd5b803590602001918460018302840111640100000000831117156105c957600080fd5b91908080601f016020809104026020016040519081016040528093929190818152602001838380828437600081840152601f19601f8201169050808301925050505050505091929192905050506117b1565b005b6106e96004803603604081101561063357600080fd5b810190808035906020019064010000000081111561065057600080fd5b82018360208201111561066257600080fd5b8035906020019184602083028401116401000000008311171561068457600080fd5b9091929391929390803590602001906401000000008111156106a557600080fd5b8201836020820111156106b757600080fd5b803590602001918460208302840111640100000000831117156106d957600080fd5b90919293919293905050506119ef565b005b6107216004803603604081101561070157600080fd5b810190808035906020019092919080359060200190929190505050611a82565b604051808373ffffffffffffffffffffffffffffffffffffffff1681526020018281526020019250505060405180910390f35b610975600480360360a081101561076a57600080fd5b81019080803573ffffffffffffffffffffffffffffffffffffffff169060200190929190803573ffffffffffffffffffffffffffffffffffffffff169060200190929190803590602001906401000000008111156107c757600080fd5b8201836020820111156107d957600080fd5b803590602001918460208302840111640100000000831117156107fb57600080fd5b919080806020026020016040519081016040528093929190818152602001838360200280828437600081840152601f19601f8201169050808301925050505050505091929192908035906020019064010000000081111561085b57600080fd5b82018360208201111561086d57600080fd5b8035906020019184602083028401116401000000008311171561088f57600080fd5b919080806020026020016040519081016040528093929190818152602001838360200280828437600081840152601f19601f820116905080830192505050505050509192919290803590602001906401000000008111156108ef57600080fd5b82018360208201111561090157600080fd5b8035906020019184600183028401116401000000008311171561092357600080fd5b91908080601f016020809104026020016040519081016040528093929190818152602001838380828437600081840152601f19601f820116905080830192505050505050509192919290505050611b38565b005b6109b96004803603602081101561098d57600080fd5b81019080803573ffffffffffffffffffffffffffffffffffffffff169060200190929190505050611c74565b005b610a92600480360360808110156109d157600080fd5b8101908080359060200190929190803590602001909291908035906020019092919080359060200190640100000000811115610a0c57600080fd5b820183602082011115610a1e57600080fd5b80359060200191846001830284011164010000000083111715610a4057600080fd5b91908080601f016020809104026020016040519081016040528093929190818152602001838380828437600081840152601f19601f820116905080830192505050505050509192919290505050611d5e565b005b610a9c611e50565b6040518082815260200191505060405180910390f35b610bfc60048036036040811015610ac857600080fd5b8101908080359060200190640100000000811115610ae557600080fd5b820183602082011115610af757600080fd5b80359060200191846020830284011164010000000083111715610b1957600080fd5b919080806020026020016040519081016040528093929190818152602001838360200280828437600081840152601f19601f82011690508083019250505050505050919291929080359060200190640100000000811115610b7957600080fd5b820183602082011115610b8b57600080fd5b80359060200191846020830284011164010000000083111715610bad57600080fd5b919080806020026020016040519081016040528093929190818152602001838360200280828437600081840152601f19601f820116905080830192505050505050509192919290505050611f1b565b6040518080602001828103825283818151815260200191508051906020019060200280838360005b83811015610c3f578082015181840152602081019050610c24565b505050509050019250505060405180910390f35b610cca60048036036020811015610c6957600080fd5b8101908080359060200190640100000000811115610c8657600080fd5b820183602082011115610c9857600080fd5b80359060200191846001830284011164010000000083111715610cba57600080fd5b9091929391929390505050612075565b005b610cd461216c565b604051808273ffffffffffffffffffffffffffffffffffffffff16815260200191505060405180910390f35b610d08612196565b6040518080602001828103825283818151815260200191508051906020019080838360005b83811015610d48578082015181840152602081019050610d2d565b50505050905090810190601f168015610d755780820380516001836020036101000a031916815260200191505b509250505060405180910390f35b610ff860048036036080811015610d9957600080fd5b8101908080359060200190640100000000811115610db657600080fd5b820183602082011115610dc857600080fd5b80359060200191846020830284011164010000000083111715610dea57600080fd5b919080806020026020016040519081016040528093929190818152602001838360200280828437600081840152601f19601f82011690508083019250505050505050919291929080359060200190640100000000811115610e4a57600080fd5b820183602082011115610e5c57600080fd5b80359060200191846020830284011164010000000083111715610e7e57600080fd5b919080806020026020016040519081016040528093929190818152602001838360200280828437600081840152601f19601f82011690508083019250505050505050919291929080359060200190640100000000811115610ede57600080fd5b820183602082011115610ef057600080fd5b80359060200191846020830284011164010000000083111715610f1257600080fd5b919080806020026020016040519081016040528093929190818152602001838360200280828437600081840152601f19601f82011690508083019250505050505050919291929080359060200190640100000000811115610f7257600080fd5b820183602082011115610f8457600080fd5b80359060200191846001830284011164010000000083111715610fa657600080fd5b91908080601f016020809104026020016040519081016040528093929190818152602001838380828437600081840152601f19601f820116905080830192505050505050509192919290505050612234565b005b611002612366565b604051808273ffffffffffffffffffffffffffffffffffffffff16815260200191505060405180910390f35b61107c6004803603604081101561104457600080fd5b81019080803573ffffffffffffffffffffffffffffffffffffffff169060200190929190803515159060200190929190505050612390565b005b6110b46004803603604081101561109457600080fd5b81019080803590602001909291908035906020019092919050505061248f565b005b6110e2600480360360208110156110cc57600080fd5b810190808035906020019092919050505061249e565b6040518082815260200191505060405180910390f35b6111006124bb565b604051808373ffffffffffffffffffffffffffffffffffffffff1681526020018281526020019250505060405180910390f35b6111956004803603604081101561114957600080fd5b81019080803573ffffffffffffffffffffffffffffffffffffffff169060200190929190803573ffffffffffffffffffffffffffffffffffffffff1690602001909291905050506124ed565b60405180821515815260200191505060405180910390f35b6112ba600480360360a08110156111c357600080fd5b81019080803573ffffffffffffffffffffffffffffffffffffffff169060200190929190803573ffffffffffffffffffffffffffffffffffffffff16906020019092919080359060200190929190803590602001909291908035906020019064010000000081111561123457600080fd5b82018360208201111561124657600080fd5b8035906020019184600183028401116401000000008311171561126857600080fd5b91908080601f016020809104026020016040519081016040528093929190818152602001838380828437600081840152601f19601f820116905080830192505050505050509192919290505050612581565b005b6112f2600480360360408110156112d257600080fd5b8101908080359060200190929190803590602001909291905050506126bd565b005b60008060008473ffffffffffffffffffffffffffffffffffffffff1673ffffffffffffffffffffffffffffffffffffffff168152602001908152602001600020600083815260200190815260200160002054905092915050565b60006113598261277f565b9050919050565b600660009054906101000a900473ffffffffffffffffffffffffffffffffffffffff1673ffffffffffffffffffffffffffffffffffffffff163373ffffffffffffffffffffffffffffffffffffffff1614611406576040517f08c379a00000000000000000000000000000000000000000000000000000000081526004018080602001828103825260268152602001806144da6026913960400191505060405180910390fd5b611432600660009054906101000a900473ffffffffffffffffffffffffffffffffffffffff1682612801565b50565b60038054600181600116156101000203166002900480601f0160208091040260200160405190810160405280929190818152602001828054600181600116156101000203166002900480156114cb5780601f106114a0576101008083540402835291602001916114cb565b820191906000526020600020905b8154815290600101906020018083116114ae57829003601f168201915b505050505081565b600660009054906101000a900473ffffffffffffffffffffffffffffffffffffffff1673ffffffffffffffffffffffffffffffffffffffff163373ffffffffffffffffffffffffffffffffffffffff1614611579576040517f08c379a00000000000000000000000000000000000000000000000000000000081526004018080602001828103825260268152602001806144da6026913960400191505060405180910390fd5b61158282612934565b61158c8282612801565b5050565b600760009054906101000a900473ffffffffffffffffffffffffffffffffffffffff1673ffffffffffffffffffffffffffffffffffffffff163373ffffffffffffffffffffffffffffffffffffffff1614611636576040517f08c379a000000000000000000000000000000000000000000000000000000000815260040180806020018281038252602a8152602001806142e2602a913960400191505060405180910390fd5b61168382828080601f016020809104026020016040519081016040528093929190818152602001838380828437600081840152601f19601f82011690508083019250505050505050612a7a565b5050565b6060600261169483612a94565b60405160200180838054600181600116156101000203166002900480156116f25780601f106116d05761010080835404028352918201916116f2565b820191906000526020600020905b8154815290600101906020018083116116de575b505082805190602001908083835b602083106117235780518252602082019150602081019050602083039250611700565b6001836020036101000a038019825116818451168082178552505050505050905001807f2e6a736f6e000000000000000000000000000000000000000000000000000000815250600501925050506040516020818303038152906040529050919050565b6000600760009054906101000a900473ffffffffffffffffffffffffffffffffffffffff16905090565b8260006117e0600660009054906101000a900473ffffffffffffffffffffffffffffffffffffffff16836112f4565b116117ea57600080fd5b60008360096000878152602001908152602001600020540290506000600860009054906101000a900473ffffffffffffffffffffffffffffffffffffffff1673ffffffffffffffffffffffffffffffffffffffff166323b872dd33600660009054906101000a900473ffffffffffffffffffffffffffffffffffffffff16856040518463ffffffff1660e01b8152600401808473ffffffffffffffffffffffffffffffffffffffff1681526020018373ffffffffffffffffffffffffffffffffffffffff1681526020018281526020019350505050602060405180830381600087803b1580156118d957600080fd5b505af11580156118ed573d6000803e3d6000fd5b505050506040513d602081101561190357600080fd5b8101908080519060200190929190505050905080611989576040517f08c379a00000000000000000000000000000000000000000000000000000000081526004018080602001828103825260208152602001807f427579657220436f756c646e2774205472616e736665722043757272656e637981525060200191505060405180910390fd5b6119b7600660009054906101000a900473ffffffffffffffffffffffffffffffffffffffff16338888612bde565b6119e7600660009054906101000a900473ffffffffffffffffffffffffffffffffffffffff163388885a89612dd2565b505050505050565b611a7c33858580806020026020016040519081016040528093929190818152602001838360200280828437600081840152601f19601f82011690508083019250505050505050848480806020026020016040519081016040528093929190818152602001838360200280828437600081840152601f19601f82011690508083019250505050505050612fe2565b50505050565b600080611a8d614152565b60046040518060400160405290816000820160009054906101000a900473ffffffffffffffffffffffffffffffffffffffff1673ffffffffffffffffffffffffffffffffffffffff1673ffffffffffffffffffffffffffffffffffffffff16815260200160018201548152505090508060000151611b2c6103e8611b1e84602001518861325590919063ffffffff16565b6132f890919063ffffffff16565b92509250509250929050565b8473ffffffffffffffffffffffffffffffffffffffff163373ffffffffffffffffffffffffffffffffffffffff161480611b785750611b7785336124ed565b5b611bcd576040517f08c379a000000000000000000000000000000000000000000000000000000000815260040180806020018281038252602f815260200180614402602f913960400191505060405180910390fd5b600073ffffffffffffffffffffffffffffffffffffffff168473ffffffffffffffffffffffffffffffffffffffff161415611c53576040517f08c379a000000000000000000000000000000000000000000000000000000000815260040180806020018281038252603081526020018061430c6030913960400191505060405180910390fd5b611c5f85858585613387565b611c6d858585855a866136e9565b5050505050565b600660009054906101000a900473ffffffffffffffffffffffffffffffffffffffff1673ffffffffffffffffffffffffffffffffffffffff163373ffffffffffffffffffffffffffffffffffffffff1614611d1a576040517f08c379a00000000000000000000000000000000000000000000000000000000081526004018080602001828103825260268152602001806144da6026913960400191505060405180910390fd5b80600860006101000a81548173ffffffffffffffffffffffffffffffffffffffff021916908373ffffffffffffffffffffffffffffffffffffffff16021790555050565b600660009054906101000a900473ffffffffffffffffffffffffffffffffffffffff1673ffffffffffffffffffffffffffffffffffffffff163373ffffffffffffffffffffffffffffffffffffffff1614611e04576040517f08c379a00000000000000000000000000000000000000000000000000000000081526004018080602001828103825260268152602001806144da6026913960400191505060405180910390fd5b611e32600660009054906101000a900473ffffffffffffffffffffffffffffffffffffffff1685858461397b565b81600960008681526020019081526020016000208190555050505050565b6000600860009054906101000a900473ffffffffffffffffffffffffffffffffffffffff1673ffffffffffffffffffffffffffffffffffffffff166370a08231336040518263ffffffff1660e01b8152600401808273ffffffffffffffffffffffffffffffffffffffff16815260200191505060206040518083038186803b158015611edb57600080fd5b505afa158015611eef573d6000803e3d6000fd5b505050506040513d6020811015611f0557600080fd5b8101908080519060200190929190505050905090565b60608151835114611f77576040517f08c379a000000000000000000000000000000000000000000000000000000000815260040180806020018281038252602c81526020018061439d602c913960400191505060405180910390fd5b6060835167ffffffffffffffff81118015611f9157600080fd5b50604051908082528060200260200182016040528015611fc05781602001602082028036833780820191505090505b50905060005b845181101561206a57600080868381518110611fde57fe5b602002602001015173ffffffffffffffffffffffffffffffffffffffff1673ffffffffffffffffffffffffffffffffffffffff168152602001908152602001600020600085838151811061202e57fe5b602002602001015181526020019081526020016000205482828151811061205157fe5b6020026020010181815250508080600101915050611fc6565b508091505092915050565b600760009054906101000a900473ffffffffffffffffffffffffffffffffffffffff1673ffffffffffffffffffffffffffffffffffffffff163373ffffffffffffffffffffffffffffffffffffffff161461211b576040517f08c379a000000000000000000000000000000000000000000000000000000000815260040180806020018281038252602a8152602001806142e2602a913960400191505060405180910390fd5b61216882828080601f016020809104026020016040519081016040528093929190818152602001838380828437600081840152601f19601f82011690508083019250505050505050613aca565b5050565b6000600860009054906101000a900473ffffffffffffffffffffffffffffffffffffffff16905090565b60028054600181600116156101000203166002900480601f01602080910402602001604051908101604052809291908181526020018280546001816001161561010002031660029004801561222c5780601f106122015761010080835404028352916020019161222c565b820191906000526020600020905b81548152906001019060200180831161220f57829003601f168201915b505050505081565b600660009054906101000a900473ffffffffffffffffffffffffffffffffffffffff1673ffffffffffffffffffffffffffffffffffffffff163373ffffffffffffffffffffffffffffffffffffffff16146122da576040517f08c379a00000000000000000000000000000000000000000000000000000000081526004018080602001828103825260268152602001806144da6026913960400191505060405180910390fd5b612308600660009054906101000a900473ffffffffffffffffffffffffffffffffffffffff16858584613ae4565b60005b845181101561235f5782818151811061232057fe5b60200260200101516009600087848151811061233857fe5b6020026020010151815260200190815260200160002081905550808060010191505061230b565b5050505050565b6000600660009054906101000a900473ffffffffffffffffffffffffffffffffffffffff16905090565b80600160003373ffffffffffffffffffffffffffffffffffffffff1673ffffffffffffffffffffffffffffffffffffffff16815260200190815260200160002060008473ffffffffffffffffffffffffffffffffffffffff1673ffffffffffffffffffffffffffffffffffffffff16815260200190815260200160002060006101000a81548160ff0219169083151502179055508173ffffffffffffffffffffffffffffffffffffffff163373ffffffffffffffffffffffffffffffffffffffff167f17307eab39ab6107e8899845ad3d59bd9653f200f220920489ca2b5937696c318360405180821515815260200191505060405180910390a35050565b61249a338383613d68565b5050565b600060096000838152602001908152602001600020549050919050565b60048060000160009054906101000a900473ffffffffffffffffffffffffffffffffffffffff16908060010154905082565b6000600160008473ffffffffffffffffffffffffffffffffffffffff1673ffffffffffffffffffffffffffffffffffffffff16815260200190815260200160002060008373ffffffffffffffffffffffffffffffffffffffff1673ffffffffffffffffffffffffffffffffffffffff16815260200190815260200160002060009054906101000a900460ff16905092915050565b8473ffffffffffffffffffffffffffffffffffffffff163373ffffffffffffffffffffffffffffffffffffffff1614806125c157506125c085336124ed565b5b612616576040517f08c379a000000000000000000000000000000000000000000000000000000000815260040180806020018281038252602a815260200180614259602a913960400191505060405180910390fd5b600073ffffffffffffffffffffffffffffffffffffffff168473ffffffffffffffffffffffffffffffffffffffff16141561269c576040517f08c379a000000000000000000000000000000000000000000000000000000000815260040180806020018281038252602b81526020018061422e602b913960400191505060405180910390fd5b6126a885858585612bde565b6126b6858585855a86612dd2565b5050505050565b600660009054906101000a900473ffffffffffffffffffffffffffffffffffffffff1673ffffffffffffffffffffffffffffffffffffffff163373ffffffffffffffffffffffffffffffffffffffff1614612763576040517f08c379a00000000000000000000000000000000000000000000000000000000081526004018080602001828103825260268152602001806144da6026913960400191505060405180910390fd5b8060096000848152602001908152602001600020819055505050565b60007f2a55205a000000000000000000000000000000000000000000000000000000007bffffffffffffffffffffffffffffffffffffffffffffffffffffffff1916827bffffffffffffffffffffffffffffffffffffffffffffffffffffffff191614156127f057600190506127fc565b6127f982613ea7565b90505b919050565b600073ffffffffffffffffffffffffffffffffffffffff168273ffffffffffffffffffffffffffffffffffffffff161415612887576040517f08c379a000000000000000000000000000000000000000000000000000000000815260040180806020018281038252603181526020018061436c6031913960400191505060405180910390fd5b6103e88111156128e2576040517f08c379a00000000000000000000000000000000000000000000000000000000081526004018080602001828103825260398152602001806143c96039913960400191505060405180910390fd5b81600460000160006101000a81548173ffffffffffffffffffffffffffffffffffffffff021916908373ffffffffffffffffffffffffffffffffffffffff160217905550806004600101819055505050565b600073ffffffffffffffffffffffffffffffffffffffff168173ffffffffffffffffffffffffffffffffffffffff1614156129ba576040517f08c379a000000000000000000000000000000000000000000000000000000000815260040180806020018281038252602a8152602001806142b8602a913960400191505060405180910390fd5b80600660006101000a81548173ffffffffffffffffffffffffffffffffffffffff021916908373ffffffffffffffffffffffffffffffffffffffff1602179055508073ffffffffffffffffffffffffffffffffffffffff16600660009054906101000a900473ffffffffffffffffffffffffffffffffffffffff1673ffffffffffffffffffffffffffffffffffffffff167f8be0079c531659141344cd1fd0a4f28419497f9722a3daafe3b4186f6b6457e060405160405180910390a350565b8060039080519060200190612a90929190614182565b5050565b60606000821415612adc576040518060400160405280600181526020017f30000000000000000000000000000000000000000000000000000000000000008152509050612bd9565b6000829050600083905060005b60008314612b0b578080600101915050600a8381612b0357fe5b049250612ae9565b60608167ffffffffffffffff81118015612b2457600080fd5b506040519080825280601f01601f191660200182016040528015612b575781602001600182028036833780820191505090505b50905060006001830390505b60008414612bd057600a8481612b7557fe5b0660300160f81b82828060019003935081518110612b8f57fe5b60200101907effffffffffffffffffffffffffffffffffffffffffffffffffffffffffffff1916908160001a905350600a8481612bc857fe5b049350612b63565b81955050505050505b919050565b612c40816000808773ffffffffffffffffffffffffffffffffffffffff1673ffffffffffffffffffffffffffffffffffffffff168152602001908152602001600020600085815260200190815260200160002054613f2990919063ffffffff16565b6000808673ffffffffffffffffffffffffffffffffffffffff1673ffffffffffffffffffffffffffffffffffffffff168152602001908152602001600020600084815260200190815260200160002081905550612cf5816000808673ffffffffffffffffffffffffffffffffffffffff1673ffffffffffffffffffffffffffffffffffffffff168152602001908152602001600020600085815260200190815260200160002054613fb290919063ffffffff16565b6000808573ffffffffffffffffffffffffffffffffffffffff1673ffffffffffffffffffffffffffffffffffffffff1681526020019081526020016000206000848152602001908152602001600020819055508273ffffffffffffffffffffffffffffffffffffffff168473ffffffffffffffffffffffffffffffffffffffff163373ffffffffffffffffffffffffffffffffffffffff167fc3d58168c5ae7397731d063d5bbf3d657854427343f4c083240f7aacaa2d0f628585604051808381526020018281526020019250505060405180910390a450505050565b612df18573ffffffffffffffffffffffffffffffffffffffff1661403a565b15612fda5760008573ffffffffffffffffffffffffffffffffffffffff1663f23a6e6184338a8989886040518763ffffffff1660e01b8152600401808673ffffffffffffffffffffffffffffffffffffffff1681526020018573ffffffffffffffffffffffffffffffffffffffff16815260200184815260200183815260200180602001828103825283818151815260200191508051906020019080838360005b83811015612ead578082015181840152602081019050612e92565b50505050905090810190601f168015612eda5780820380516001836020036101000a031916815260200191505b509650505050505050602060405180830381600088803b158015612efd57600080fd5b5087f1158015612f11573d6000803e3d6000fd5b50505050506040513d6020811015612f2857600080fd5b8101908080519060200190929190505050905063f23a6e6160e01b7bffffffffffffffffffffffffffffffffffffffffffffffffffffffff1916817bffffffffffffffffffffffffffffffffffffffffffffffffffffffff191614612fd8576040517f08c379a000000000000000000000000000000000000000000000000000000000815260040180806020018281038252603a8152602001806144a0603a913960400191505060405180910390fd5b505b505050505050565b60008251905081518114613041576040517f08c379a000000000000000000000000000000000000000000000000000000000815260040180806020018281038252603081526020018061433c6030913960400191505060405180910390fd5b60005b81811015613147576130d483828151811061305b57fe5b60200260200101516000808873ffffffffffffffffffffffffffffffffffffffff1673ffffffffffffffffffffffffffffffffffffffff16815260200190815260200160002060008785815181106130af57fe5b6020026020010151815260200190815260200160002054613f2990919063ffffffff16565b6000808773ffffffffffffffffffffffffffffffffffffffff1673ffffffffffffffffffffffffffffffffffffffff168152602001908152602001600020600086848151811061312057fe5b60200260200101518152602001908152602001600020819055508080600101915050613044565b50600073ffffffffffffffffffffffffffffffffffffffff168473ffffffffffffffffffffffffffffffffffffffff163373ffffffffffffffffffffffffffffffffffffffff167f4a39dc06d4c0dbc64b70af90fd698a233a518aa5d07e595d983b8c0526c8f7fb8686604051808060200180602001838103835285818151815260200191508051906020019060200280838360005b838110156131f85780820151818401526020810190506131dd565b50505050905001838103825284818151815260200191508051906020019060200280838360005b8381101561323a57808201518184015260208101905061321f565b5050505090500194505050505060405180910390a450505050565b60008083141561326857600090506132f2565b600082840290508284828161327957fe5b04146132ed576040517f08c379a00000000000000000000000000000000000000000000000000000000081526004018080602001828103825260168152602001807f536166654d617468236d756c3a204f564552464c4f570000000000000000000081525060200191505060405180910390fd5b809150505b92915050565b600080821161336f576040517f08c379a000000000000000000000000000000000000000000000000000000000815260040180806020018281038252601e8152602001807f536166654d617468236469763a204449564953494f4e5f42595f5a45524f000081525060200191505060405180910390fd5b600082848161337a57fe5b0490508091505092915050565b80518251146133e1576040517f08c379a00000000000000000000000000000000000000000000000000000000081526004018080602001828103825260358152602001806142836035913960400191505060405180910390fd5b60008251905060005b818110156135db5761347a83828151811061340157fe5b60200260200101516000808973ffffffffffffffffffffffffffffffffffffffff1673ffffffffffffffffffffffffffffffffffffffff168152602001908152602001600020600087858151811061345557fe5b6020026020010151815260200190815260200160002054613f2990919063ffffffff16565b6000808873ffffffffffffffffffffffffffffffffffffffff1673ffffffffffffffffffffffffffffffffffffffff16815260200190815260200160002060008684815181106134c657fe5b60200260200101518152602001908152602001600020819055506135688382815181106134ef57fe5b60200260200101516000808873ffffffffffffffffffffffffffffffffffffffff1673ffffffffffffffffffffffffffffffffffffffff168152602001908152602001600020600087858151811061354357fe5b6020026020010151815260200190815260200160002054613fb290919063ffffffff16565b6000808773ffffffffffffffffffffffffffffffffffffffff1673ffffffffffffffffffffffffffffffffffffffff16815260200190815260200160002060008684815181106135b457fe5b602002602001015181526020019081526020016000208190555080806001019150506133ea565b508373ffffffffffffffffffffffffffffffffffffffff168573ffffffffffffffffffffffffffffffffffffffff163373ffffffffffffffffffffffffffffffffffffffff167f4a39dc06d4c0dbc64b70af90fd698a233a518aa5d07e595d983b8c0526c8f7fb8686604051808060200180602001838103835285818151815260200191508051906020019060200280838360005b8381101561368b578082015181840152602081019050613670565b50505050905001838103825284818151815260200191508051906020019060200280838360005b838110156136cd5780820151818401526020810190506136b2565b5050505090500194505050505060405180910390a45050505050565b6137088573ffffffffffffffffffffffffffffffffffffffff1661403a565b156139735760008573ffffffffffffffffffffffffffffffffffffffff1663bc197c8184338a8989886040518763ffffffff1660e01b8152600401808673ffffffffffffffffffffffffffffffffffffffff1681526020018573ffffffffffffffffffffffffffffffffffffffff168152602001806020018060200180602001848103845287818151815260200191508051906020019060200280838360005b838110156137c35780820151818401526020810190506137a8565b50505050905001848103835286818151815260200191508051906020019060200280838360005b838110156138055780820151818401526020810190506137ea565b50505050905001848103825285818151815260200191508051906020019080838360005b83811015613844578082015181840152602081019050613829565b50505050905090810190601f1680156138715780820380516001836020036101000a031916815260200191505b5098505050505050505050602060405180830381600088803b15801561389657600080fd5b5087f11580156138aa573d6000803e3d6000fd5b50505050506040513d60208110156138c157600080fd5b8101908080519060200190929190505050905063bc197c8160e01b7bffffffffffffffffffffffffffffffffffffffffffffffffffffffff1916817bffffffffffffffffffffffffffffffffffffffffffffffffffffffff191614613971576040517f08c379a000000000000000000000000000000000000000000000000000000000815260040180806020018281038252603f815260200180614461603f913960400191505060405180910390fd5b505b505050505050565b6139dd826000808773ffffffffffffffffffffffffffffffffffffffff1673ffffffffffffffffffffffffffffffffffffffff168152602001908152602001600020600086815260200190815260200160002054613fb290919063ffffffff16565b6000808673ffffffffffffffffffffffffffffffffffffffff1673ffffffffffffffffffffffffffffffffffffffff1681526020019081526020016000206000858152602001908152602001600020819055508373ffffffffffffffffffffffffffffffffffffffff16600073ffffffffffffffffffffffffffffffffffffffff163373ffffffffffffffffffffffffffffffffffffffff167fc3d58168c5ae7397731d063d5bbf3d657854427343f4c083240f7aacaa2d0f628686604051808381526020018281526020019250505060405180910390a4613ac460008585855a86612dd2565b50505050565b8060029080519060200190613ae0929190614182565b5050565b8151835114613b3e576040517f08c379a00000000000000000000000000000000000000000000000000000000081526004018080602001828103825260308152602001806144316030913960400191505060405180910390fd5b60008351905060005b81811015613c4a57613bd7848281518110613b5e57fe5b60200260200101516000808973ffffffffffffffffffffffffffffffffffffffff1673ffffffffffffffffffffffffffffffffffffffff1681526020019081526020016000206000888581518110613bb257fe5b6020026020010151815260200190815260200160002054613fb290919063ffffffff16565b6000808873ffffffffffffffffffffffffffffffffffffffff1673ffffffffffffffffffffffffffffffffffffffff1681526020019081526020016000206000878481518110613c2357fe5b60200260200101518152602001908152602001600020819055508080600101915050613b47565b508473ffffffffffffffffffffffffffffffffffffffff16600073ffffffffffffffffffffffffffffffffffffffff163373ffffffffffffffffffffffffffffffffffffffff167f4a39dc06d4c0dbc64b70af90fd698a233a518aa5d07e595d983b8c0526c8f7fb8787604051808060200180602001838103835285818151815260200191508051906020019060200280838360005b83811015613cfb578082015181840152602081019050613ce0565b50505050905001838103825284818151815260200191508051906020019060200280838360005b83811015613d3d578082015181840152602081019050613d22565b5050505090500194505050505060405180910390a4613d6160008686865a876136e9565b5050505050565b613dca816000808673ffffffffffffffffffffffffffffffffffffffff1673ffffffffffffffffffffffffffffffffffffffff168152602001908152602001600020600085815260200190815260200160002054613f2990919063ffffffff16565b6000808573ffffffffffffffffffffffffffffffffffffffff1673ffffffffffffffffffffffffffffffffffffffff168152602001908152602001600020600084815260200190815260200160002081905550600073ffffffffffffffffffffffffffffffffffffffff168373ffffffffffffffffffffffffffffffffffffffff163373ffffffffffffffffffffffffffffffffffffffff167fc3d58168c5ae7397731d063d5bbf3d657854427343f4c083240f7aacaa2d0f628585604051808381526020018281526020019250505060405180910390a4505050565b60007f0e89341c000000000000000000000000000000000000000000000000000000007bffffffffffffffffffffffffffffffffffffffffffffffffffffffff1916827bffffffffffffffffffffffffffffffffffffffffffffffffffffffff19161415613f185760019050613f24565b613f218261407f565b90505b919050565b600082821115613fa1576040517f08c379a00000000000000000000000000000000000000000000000000000000081526004018080602001828103825260178152602001807f536166654d617468237375623a20554e444552464c4f5700000000000000000081525060200191505060405180910390fd5b600082840390508091505092915050565b600080828401905083811015614030576040517f08c379a00000000000000000000000000000000000000000000000000000000081526004018080602001828103825260168152602001807f536166654d617468236164643a204f564552464c4f570000000000000000000081525060200191505060405180910390fd5b8091505092915050565b600080823f90506000801b811415801561407757507fc5d2460186f7233c927e7db2dcc703c0e500b653ca82273b7bfad8045d85a47060001b8114155b915050919050565b60007fd9b67a26000000000000000000000000000000000000000000000000000000007bffffffffffffffffffffffffffffffffffffffffffffffffffffffff1916827bffffffffffffffffffffffffffffffffffffffffffffffffffffffff191614156140f057600190506140fc565b6140f982614101565b90505b919050565b60006301ffc9a760e01b7bffffffffffffffffffffffffffffffffffffffffffffffffffffffff1916827bffffffffffffffffffffffffffffffffffffffffffffffffffffffff1916149050919050565b6040518060400160405280600073ffffffffffffffffffffffffffffffffffffffff168152602001600081525090565b828054600181600116156101000203166002900490600052602060002090601f0160209004810192826141b857600085556141ff565b82601f106141d157805160ff19168380011785556141ff565b828001600101855582156141ff579182015b828111156141fe5782518255916020019190600101906141e3565b5b50905061420c9190614210565b5090565b5b80821115614229576000816000905550600101614211565b509056fe4552433131353523736166655472616e7366657246726f6d3a20494e56414c49445f524543495049454e544552433131353523736166655472616e7366657246726f6d3a20494e56414c49445f4f50455241544f5245524331313535235f7361666542617463685472616e7366657246726f6d3a20494e56414c49445f4152524159535f4c454e4754484f776e61626c65237472616e736665724f776e6572736869703a20494e56414c49445f414444524553534f776e61626c65236f6e6c7943726561746f723a2053454e4445525f49535f4e4f545f43524541544f5245524331313535237361666542617463685472616e7366657246726f6d3a20494e56414c49445f524543495049454e54455243313135354d696e744275726e2362617463684275726e3a20494e56414c49445f4152524159535f4c454e47544845524332393831476c6f62616c235f736574476c6f62616c526f79616c74793a20524543495049454e545f49535f307830455243313135352362616c616e63654f6642617463683a20494e56414c49445f41525241595f4c454e47544845524332393831476c6f62616c235f736574476c6f62616c526f79616c74793a204645455f49535f41424f56455f3130305f50455243454e5445524331313535237361666542617463685472616e7366657246726f6d3a20494e56414c49445f4f50455241544f52455243313135354d696e744275726e2362617463684d696e743a20494e56414c49445f4152524159535f4c454e47544845524331313535235f63616c6c6f6e45524331313535426174636852656365697665643a20494e56414c49445f4f4e5f524543454956455f4d45535341474545524331313535235f63616c6c6f6e4552433131353552656365697665643a20494e56414c49445f4f4e5f524543454956455f4d4553534147454f776e61626c65236f6e6c794f776e65723a2053454e4445525f49535f4e4f545f4f574e4552a264697066735822122038f86edba4e73a8c128f9d14e6d4bd61e345f912767249a147fc27eaa1a8bde264736f6c6343000704003345524332393831476c6f62616c235f736574476c6f62616c526f79616c74793a20524543495049454e545f49535f30783045524332393831476c6f62616c235f736574476c6f62616c526f79616c74793a204645455f49535f41424f56455f3130305f50455243454e5441727469737420436f6c6c656374696f6e20616c7265616479206465706c6f7965644f776e61626c65236f6e6c7943726561746f723a2053454e4445525f49535f4e4f545f43524541544f52a26469706673582212202a24af257f9872a6c747b02bb4d9c47532575f27db19beae9972ce6e024f6f7664736f6c63430007040033",
  "immutableReferences": {},
  "source": "// SPDX-License-Identifier: UNLICENSED\npragma solidity ^0.7.4;\n\nimport \"./Artist.sol\";\nimport \"./utils/Ownable.sol\";\n\ncontract Deployer is Ownable {\n    mapping(address => ArtistCollection) internal artistOwnerMap;\n\n    constructor () Ownable(msg.sender, msg.sender) {}\n\n    modifier isNotDeployed(address _artistAddr) {\n        require(address(artistOwnerMap[_artistAddr])==address(0), \"Artist Collection already deployed\");\n        _;\n    }\n\n    function deploy(string memory _collectionName, string memory _baseURI, address _artistAddr, uint256 _royaltyBasisPoints, address _currency) external isNotDeployed(_artistAddr){\n        ArtistCollection _a = new ArtistCollection(_collectionName, _baseURI, _artistAddr, _royaltyBasisPoints, _currency);\n        artistOwnerMap[_artistAddr] = _a;\n    }\n\n    // ONLY USED TO REPLACE OLD CONTRACTS\n    function forceDeploy(string memory _collectionName, string memory _baseURI, address _artistAddr, uint256 _royaltyBasisPoints, address _currency) external onlyCreator{\n        ArtistCollection _a = new ArtistCollection(_collectionName, _baseURI, _artistAddr, _royaltyBasisPoints, _currency);\n        artistOwnerMap[_artistAddr] = _a;\n    }\n\n    function getAllCollection(address[] memory _artistAddrs) external view returns(address[] memory) {\n        address[] memory artistCollectionAddrs;\n        for (uint i = 0; i < _artistAddrs.length; i++) {\n            artistCollectionAddrs[i] = address(artistOwnerMap[_artistAddrs[i]]);\n        }\n        return artistCollectionAddrs;\n    }\n    \n    function getArtistCollection(address _artistAddr) external view returns(address) {\n        return address(artistOwnerMap[_artistAddr]);\n    }\n}\n",
  "sourcePath": "/Users/shubhaankar/github.com/solo-nw/contracts/contracts/Deployer.sol",
  "compiler": {
    "name": "solc",
    "version": "0.7.4+commit.3f05b770.Emscripten.clang"
  },
  "schemaVersion": "3.4.11",
  "updatedAt": "2022-12-31T04:05:03.375Z",
  "devdoc": {
    "kind": "dev",
    "methods": {},
    "version": 1
  },
  "userdoc": {
    "kind": "user",
    "methods": {},
    "version": 1
  }
}