{
  "contractName": "Deployer",
  "abi": [
    {
      "inputs": [],
      "stateMutability": "nonpayable",
      "type": "constructor"
    },
    {
      "anonymous": false,
      "inputs": [
        {
          "indexed": true,
          "internalType": "address",
          "name": "previousOwner",
          "type": "address"
        },
        {
          "indexed": true,
          "internalType": "address",
          "name": "newOwner",
          "type": "address"
        }
      ],
      "name": "OwnershipTransferred",
      "type": "event"
    },
    {
      "inputs": [],
      "name": "getOwner",
      "outputs": [
        {
          "internalType": "address",
          "name": "",
          "type": "address"
        }
      ],
      "stateMutability": "view",
      "type": "function",
      "constant": true
    },
    {
      "inputs": [
        {
          "internalType": "string",
          "name": "_collectionName",
          "type": "string"
        },
        {
          "internalType": "string",
          "name": "_baseURI",
          "type": "string"
        },
        {
          "internalType": "address",
          "name": "_artistAddr",
          "type": "address"
        },
        {
          "internalType": "uint256",
          "name": "_royaltyBasisPoints",
          "type": "uint256"
        },
        {
          "internalType": "address",
          "name": "_currency",
          "type": "address"
        }
      ],
      "name": "deploy",
      "outputs": [],
      "stateMutability": "nonpayable",
      "type": "function"
    },
    {
      "inputs": [
        {
          "internalType": "address[]",
          "name": "_artistAddrs",
          "type": "address[]"
        }
      ],
      "name": "getAllCollection",
      "outputs": [
        {
          "internalType": "address[]",
          "name": "",
          "type": "address[]"
        }
      ],
      "stateMutability": "view",
      "type": "function",
      "constant": true
    },
    {
      "inputs": [
        {
          "internalType": "address[]",
          "name": "_artistAddrs",
          "type": "address[]"
        },
        {
          "internalType": "string[]",
          "name": "_baseURIs",
          "type": "string[]"
        }
      ],
      "name": "setBaseURIBatch",
      "outputs": [],
      "stateMutability": "nonpayable",
      "type": "function"
    },
    {
      "inputs": [
        {
          "internalType": "address[]",
          "name": "_artistAddrs",
          "type": "address[]"
        },
        {
          "internalType": "address[]",
          "name": "_currencies",
          "type": "address[]"
        }
      ],
      "name": "setCurrencyBatch",
      "outputs": [],
      "stateMutability": "nonpayable",
      "type": "function"
    }
  ],
  "bytecode": "0x608060405234801561001057600080fd5b5033806000806101000a81548173ffffffffffffffffffffffffffffffffffffffff021916908373ffffffffffffffffffffffffffffffffffffffff1602179055508073ffffffffffffffffffffffffffffffffffffffff16600073ffffffffffffffffffffffffffffffffffffffff167f8be0079c531659141344cd1fd0a4f28419497f9722a3daafe3b4186f6b6457e060405160405180910390a350615f64806100bd6000396000f3fe60806040523480156200001157600080fd5b50600436106200005e5760003560e01c80631784e96414620000635780637729c7711462000099578063893d20e814620000b957806397799c6b14620000db578063f138ad2714620000fb575b600080fd5b6200008160048036038101906200007b9190620009be565b6200011b565b60405162000090919062000d5c565b60405180910390f35b620000b76004803603810190620000b1919062000a03565b620001fe565b005b620000c362000401565b604051620000d2919062000d3f565b60405180910390f35b620000f96004803603810190620000f3919062000ae9565b6200042a565b005b62000119600480360381019062000113919062000a76565b62000619565b005b60608060005b8351811015620001f457600160008583815181106200013c57fe5b602002602001015173ffffffffffffffffffffffffffffffffffffffff1673ffffffffffffffffffffffffffffffffffffffff16815260200190815260200160002060009054906101000a900473ffffffffffffffffffffffffffffffffffffffff16828281518110620001ac57fe5b602002602001019073ffffffffffffffffffffffffffffffffffffffff16908173ffffffffffffffffffffffffffffffffffffffff1681525050808060010191505062000121565b5080915050919050565b60008054906101000a900473ffffffffffffffffffffffffffffffffffffffff1673ffffffffffffffffffffffffffffffffffffffff163373ffffffffffffffffffffffffffffffffffffffff1614620002a4576040517f08c379a000000000000000000000000000000000000000000000000000000000815260040180806020018281038252602681526020018062005f096026913960400191505060405180910390fd5b8051825114620002eb576040517f08c379a0000000000000000000000000000000000000000000000000000000008152600401620002e29062000e31565b60405180910390fd5b60005b8251811015620003fc57600160008483815181106200030957fe5b602002602001015173ffffffffffffffffffffffffffffffffffffffff1673ffffffffffffffffffffffffffffffffffffffff16815260200190815260200160002060009054906101000a900473ffffffffffffffffffffffffffffffffffffffff1673ffffffffffffffffffffffffffffffffffffffff16632f84c3918383815181106200039457fe5b60200260200101516040518263ffffffff1660e01b8152600401620003ba919062000d3f565b600060405180830381600087803b158015620003d557600080fd5b505af1158015620003ea573d6000803e3d6000fd5b505050508080600101915050620002ee565b505050565b60008060009054906101000a900473ffffffffffffffffffffffffffffffffffffffff16905090565b82600073ffffffffffffffffffffffffffffffffffffffff16600160008373ffffffffffffffffffffffffffffffffffffffff1673ffffffffffffffffffffffffffffffffffffffff16815260200190815260200160002060009054906101000a900473ffffffffffffffffffffffffffffffffffffffff1673ffffffffffffffffffffffffffffffffffffffff16148062000511575060008054906101000a900473ffffffffffffffffffffffffffffffffffffffff1673ffffffffffffffffffffffffffffffffffffffff163373ffffffffffffffffffffffffffffffffffffffff16145b62000553576040517f08c379a00000000000000000000000000000000000000000000000000000000081526004016200054a9062000e0f565b60405180910390fd5b858585858560405162000566906200081c565b6200057695949392919062000da4565b604051809103906000f08015801562000593573d6000803e3d6000fd5b50600160008673ffffffffffffffffffffffffffffffffffffffff1673ffffffffffffffffffffffffffffffffffffffff16815260200190815260200160002060006101000a81548173ffffffffffffffffffffffffffffffffffffffff021916908373ffffffffffffffffffffffffffffffffffffffff160217905550505050505050565b60008054906101000a900473ffffffffffffffffffffffffffffffffffffffff1673ffffffffffffffffffffffffffffffffffffffff163373ffffffffffffffffffffffffffffffffffffffff1614620006bf576040517f08c379a000000000000000000000000000000000000000000000000000000000815260040180806020018281038252602681526020018062005f096026913960400191505060405180910390fd5b805182511462000706576040517f08c379a0000000000000000000000000000000000000000000000000000000008152600401620006fd9062000e31565b60405180910390fd5b60005b82518110156200081757600160008483815181106200072457fe5b602002602001015173ffffffffffffffffffffffffffffffffffffffff1673ffffffffffffffffffffffffffffffffffffffff16815260200190815260200160002060009054906101000a900473ffffffffffffffffffffffffffffffffffffffff1673ffffffffffffffffffffffffffffffffffffffff166355f804b3838381518110620007af57fe5b60200260200101516040518263ffffffff1660e01b8152600401620007d5919062000d80565b600060405180830381600087803b158015620007f057600080fd5b505af115801562000805573d6000803e3d6000fd5b50505050808060010191505062000709565b505050565b614ed1806200103883390190565b6000813590506200083b8162001003565b92915050565b600082601f8301126200085357600080fd5b81356200086a620008648262000e87565b62000e53565b915081818352602084019350602081019050838560208402820111156200089057600080fd5b60005b83811015620008c45781620008a988826200082a565b84526020840193506020830192505060018101905062000893565b5050505092915050565b600082601f830112620008e057600080fd5b8135620008f7620008f18262000eb6565b62000e53565b9150818183526020840193506020810190508360005b838110156200094157813586016200092688826200094b565b8452602084019350602083019250506001810190506200090d565b5050505092915050565b600082601f8301126200095d57600080fd5b8135620009746200096e8262000ee5565b62000e53565b915080825260208301602083018583830111156200099157600080fd5b6200099e83828462000fab565b50505092915050565b600081359050620009b8816200101d565b92915050565b600060208284031215620009d157600080fd5b600082013567ffffffffffffffff811115620009ec57600080fd5b620009fa8482850162000841565b91505092915050565b6000806040838503121562000a1757600080fd5b600083013567ffffffffffffffff81111562000a3257600080fd5b62000a408582860162000841565b925050602083013567ffffffffffffffff81111562000a5e57600080fd5b62000a6c8582860162000841565b9150509250929050565b6000806040838503121562000a8a57600080fd5b600083013567ffffffffffffffff81111562000aa557600080fd5b62000ab38582860162000841565b925050602083013567ffffffffffffffff81111562000ad157600080fd5b62000adf85828601620008ce565b9150509250929050565b600080600080600060a0868803121562000b0257600080fd5b600086013567ffffffffffffffff81111562000b1d57600080fd5b62000b2b888289016200094b565b955050602086013567ffffffffffffffff81111562000b4957600080fd5b62000b57888289016200094b565b945050604062000b6a888289016200082a565b935050606062000b7d88828901620009a7565b925050608062000b90888289016200082a565b9150509295509295909350565b600062000bab838362000bb7565b60208301905092915050565b62000bc28162000f6d565b82525050565b62000bd38162000f6d565b82525050565b600062000be68262000f28565b62000bf2818562000f4b565b935062000bff8362000f18565b8060005b8381101562000c3657815162000c1a888262000b9d565b975062000c278362000f3e565b92505060018101905062000c03565b5085935050505092915050565b600062000c508262000f33565b62000c5c818562000f5c565b935062000c6e81856020860162000fba565b62000c798162000ff2565b840191505092915050565b600062000c9360228362000f5c565b91507f41727469737420436f6c6c656374696f6e20616c7265616479206465706c6f7960008301527f65640000000000000000000000000000000000000000000000000000000000006020830152604082019050919050565b600062000cfb60188362000f5c565b91507f4172726179206c656e67746873206d757374206d6174636800000000000000006000830152602082019050919050565b62000d398162000fa1565b82525050565b600060208201905062000d56600083018462000bc8565b92915050565b6000602082019050818103600083015262000d78818462000bd9565b905092915050565b6000602082019050818103600083015262000d9c818462000c43565b905092915050565b600060a082019050818103600083015262000dc0818862000c43565b9050818103602083015262000dd6818762000c43565b905062000de7604083018662000bc8565b62000df6606083018562000d2e565b62000e05608083018462000bc8565b9695505050505050565b6000602082019050818103600083015262000e2a8162000c84565b9050919050565b6000602082019050818103600083015262000e4c8162000cec565b9050919050565b6000604051905081810181811067ffffffffffffffff8211171562000e7d5762000e7c62000ff0565b5b8060405250919050565b600067ffffffffffffffff82111562000ea55762000ea462000ff0565b5b602082029050602081019050919050565b600067ffffffffffffffff82111562000ed45762000ed362000ff0565b5b602082029050602081019050919050565b600067ffffffffffffffff82111562000f035762000f0262000ff0565b5b601f19601f8301169050602081019050919050565b6000819050602082019050919050565b600081519050919050565b600081519050919050565b6000602082019050919050565b600082825260208201905092915050565b600082825260208201905092915050565b600062000f7a8262000f81565b9050919050565b600073ffffffffffffffffffffffffffffffffffffffff82169050919050565b6000819050919050565b82818337600083830152505050565b60005b8381101562000fda57808201518184015260208101905062000fbd565b8381111562000fea576000848401525b50505050565bfe5b6000601f19601f8301169050919050565b6200100e8162000f6d565b81146200101a57600080fd5b50565b620010288162000fa1565b81146200103457600080fd5b5056fe60806040523480156200001157600080fd5b5060405162004ed138038062004ed1833981810160405260a08110156200003757600080fd5b81019080805160405193929190846401000000008211156200005857600080fd5b838201915060208201858111156200006f57600080fd5b82518660018202830111640100000000821117156200008d57600080fd5b8083526020830192505050908051906020019080838360005b83811015620000c3578082015181840152602081019050620000a6565b50505050905090810190601f168015620000f15780820380516001836020036101000a031916815260200191505b50604052602001805160405193929190846401000000008211156200011557600080fd5b838201915060208201858111156200012c57600080fd5b82518660018202830111640100000000821117156200014a57600080fd5b8083526020830192505050908051906020019080838360005b838110156200018057808201518184015260208101905062000163565b50505050905090810190601f168015620001ae5780820380516001836020036101000a031916815260200191505b50604052602001805190602001909291908051906020019092919080519060200190929190505050338386868160039080519060200190620001f29291906200048a565b5080600290805190602001906200020b9291906200048a565b50505080600660006101000a81548173ffffffffffffffffffffffffffffffffffffffff021916908373ffffffffffffffffffffffffffffffffffffffff16021790555081600760006101000a81548173ffffffffffffffffffffffffffffffffffffffff021916908373ffffffffffffffffffffffffffffffffffffffff1602179055508073ffffffffffffffffffffffffffffffffffffffff16600073ffffffffffffffffffffffffffffffffffffffff167f8be0079c531659141344cd1fd0a4f28419497f9722a3daafe3b4186f6b6457e060405160405180910390a35050620002ff83836200035360201b60201c565b80600860006101000a81548173ffffffffffffffffffffffffffffffffffffffff021916908373ffffffffffffffffffffffffffffffffffffffff1602179055506000600a81905550505050505062000540565b600073ffffffffffffffffffffffffffffffffffffffff168273ffffffffffffffffffffffffffffffffffffffff161415620003db576040517f08c379a000000000000000000000000000000000000000000000000000000000815260040180806020018281038252603181526020018062004e676031913960400191505060405180910390fd5b6103e881111562000438576040517f08c379a000000000000000000000000000000000000000000000000000000000815260040180806020018281038252603981526020018062004e986039913960400191505060405180910390fd5b81600460000160006101000a81548173ffffffffffffffffffffffffffffffffffffffff021916908373ffffffffffffffffffffffffffffffffffffffff160217905550806004600101819055505050565b828054600181600116156101000203166002900490600052602060002090601f016020900481019282620004c257600085556200050e565b82601f10620004dd57805160ff19168380011785556200050e565b828001600101855582156200050e579182015b828111156200050d578251825591602001919060010190620004f0565b5b5090506200051d919062000521565b5090565b5b808211156200053c57600081600090555060010162000522565b5090565b61491780620005506000396000f3fe608060405234801561001057600080fd5b50600436106101dd5760003560e01c80634e1273f411610104578063893d20e8116100a2578063c9823cc611610071578063c9823cc614611278578063e985e9c5146112b3578063f242432a1461132d578063f7d975771461143c576101de565b8063893d20e81461117a578063a22cb465146111ae578063b390c0ab146111fe578063c457fb3714611236576101de565b80636945c1fd116100de5780636945c1fd14610d005780636c0360eb14610d3457806386f05f1d14610db757806387fb8e4814610f03576101de565b80634e1273f414610ac857806355f804b314610c695780635c75347a14610ce2576101de565b80630ee2cb101161017c5780632eb2c2d61161014b5780632eb2c2d61461076a5780632f84c3911461098d5780634a198119146109d15780634a9eee69146109ef576101de565b80630ee2cb10146105305780631efd73a51461056457806320ec271b146106335780632a55205a14610701576101de565b806306fdde03116101b857806306fdde031461033f5780630a276680146103c25780630b5ee006146104105780630e89341c14610489576101de565b8062fdd58e1461024c57806301ffc9a7146102ae578063045a1e9914610311576101de565b5b6040517f08c379a00000000000000000000000000000000000000000000000000000000081526004018080602001828103825260128152602001807f554e535550504f525445445f4d4554484f44000000000000000000000000000081525060200191505060405180910390fd5b6102986004803603604081101561026257600080fd5b81019080803573ffffffffffffffffffffffffffffffffffffffff16906020019092919080359060200190929190505050611474565b6040518082815260200191505060405180910390f35b6102f9600480360360208110156102c457600080fd5b8101908080357bffffffffffffffffffffffffffffffffffffffffffffffffffffffff191690602001909291905050506114ce565b60405180821515815260200191505060405180910390f35b61033d6004803603602081101561032757600080fd5b81019080803590602001909291905050506114e0565b005b6103476115b5565b6040518080602001828103825283818151815260200191508051906020019080838360005b8381101561038757808201518184015260208101905061036c565b50505050905090810190601f1680156103b45780820380516001836020036101000a031916815260200191505b509250505060405180910390f35b61040e600480360360408110156103d857600080fd5b81019080803573ffffffffffffffffffffffffffffffffffffffff16906020019092919080359060200190929190505050611653565b005b6104876004803603602081101561042657600080fd5b810190808035906020019064010000000081111561044357600080fd5b82018360208201111561045557600080fd5b8035906020019184600183028401116401000000008311171561047757600080fd5b9091929391929390505050611710565b005b6104b56004803603602081101561049f57600080fd5b8101908080359060200190929190505050611807565b6040518080602001828103825283818151815260200191508051906020019080838360005b838110156104f55780820151818401526020810190506104da565b50505050905090810190601f1680156105225780820380516001836020036101000a031916815260200191505b509250505060405180910390f35b610538611907565b604051808273ffffffffffffffffffffffffffffffffffffffff16815260200191505060405180910390f35b6106316004803603606081101561057a57600080fd5b810190808035906020019092919080359060200190929190803590602001906401000000008111156105ab57600080fd5b8201836020820111156105bd57600080fd5b803590602001918460018302840111640100000000831117156105df57600080fd5b91908080601f016020809104026020016040519081016040528093929190818152602001838380828437600081840152601f19601f820116905080830192505050505050509192919290505050611931565b005b6106ff6004803603604081101561064957600080fd5b810190808035906020019064010000000081111561066657600080fd5b82018360208201111561067857600080fd5b8035906020019184602083028401116401000000008311171561069a57600080fd5b9091929391929390803590602001906401000000008111156106bb57600080fd5b8201836020820111156106cd57600080fd5b803590602001918460208302840111640100000000831117156106ef57600080fd5b9091929391929390505050611b6f565b005b6107376004803603604081101561071757600080fd5b810190808035906020019092919080359060200190929190505050611c02565b604051808373ffffffffffffffffffffffffffffffffffffffff1681526020018281526020019250505060405180910390f35b61098b600480360360a081101561078057600080fd5b81019080803573ffffffffffffffffffffffffffffffffffffffff169060200190929190803573ffffffffffffffffffffffffffffffffffffffff169060200190929190803590602001906401000000008111156107dd57600080fd5b8201836020820111156107ef57600080fd5b8035906020019184602083028401116401000000008311171561081157600080fd5b919080806020026020016040519081016040528093929190818152602001838360200280828437600081840152601f19601f8201169050808301925050505050505091929192908035906020019064010000000081111561087157600080fd5b82018360208201111561088357600080fd5b803590602001918460208302840111640100000000831117156108a557600080fd5b919080806020026020016040519081016040528093929190818152602001838360200280828437600081840152601f19601f8201169050808301925050505050505091929192908035906020019064010000000081111561090557600080fd5b82018360208201111561091757600080fd5b8035906020019184600183028401116401000000008311171561093957600080fd5b91908080601f016020809104026020016040519081016040528093929190818152602001838380828437600081840152601f19601f820116905080830192505050505050509192919290505050611cb8565b005b6109cf600480360360208110156109a357600080fd5b81019080803573ffffffffffffffffffffffffffffffffffffffff169060200190929190505050611df4565b005b6109d9611f36565b6040518082815260200191505060405180910390f35b610ac660048036036080811015610a0557600080fd5b8101908080359060200190929190803590602001909291908035906020019092919080359060200190640100000000811115610a4057600080fd5b820183602082011115610a5257600080fd5b80359060200191846001830284011164010000000083111715610a7457600080fd5b91908080601f016020809104026020016040519081016040528093929190818152602001838380828437600081840152601f19601f820116905080830192505050505050509192919290505050611f43565b005b610c1260048036036040811015610ade57600080fd5b8101908080359060200190640100000000811115610afb57600080fd5b820183602082011115610b0d57600080fd5b80359060200191846020830284011164010000000083111715610b2f57600080fd5b919080806020026020016040519081016040528093929190818152602001838360200280828437600081840152601f19601f82011690508083019250505050505050919291929080359060200190640100000000811115610b8f57600080fd5b820183602082011115610ba157600080fd5b80359060200191846020830284011164010000000083111715610bc357600080fd5b919080806020026020016040519081016040528093929190818152602001838360200280828437600081840152601f19601f820116905080830192505050505050509192919290505050612047565b6040518080602001828103825283818151815260200191508051906020019060200280838360005b83811015610c55578082015181840152602081019050610c3a565b505050509050019250505060405180910390f35b610ce060048036036020811015610c7f57600080fd5b8101908080359060200190640100000000811115610c9c57600080fd5b820183602082011115610cae57600080fd5b80359060200191846001830284011164010000000083111715610cd057600080fd5b90919293919293905050506121a1565b005b610cea612298565b6040518082815260200191505060405180910390f35b610d08612363565b604051808273ffffffffffffffffffffffffffffffffffffffff16815260200191505060405180910390f35b610d3c61238d565b6040518080602001828103825283818151815260200191508051906020019080838360005b83811015610d7c578082015181840152602081019050610d61565b50505050905090810190601f168015610da95780820380516001836020036101000a031916815260200191505b509250505060405180910390f35b610f0160048036036040811015610dcd57600080fd5b8101908080359060200190640100000000811115610dea57600080fd5b820183602082011115610dfc57600080fd5b80359060200191846020830284011164010000000083111715610e1e57600080fd5b919080806020026020016040519081016040528093929190818152602001838360200280828437600081840152601f19601f82011690508083019250505050505050919291929080359060200190640100000000811115610e7e57600080fd5b820183602082011115610e9057600080fd5b80359060200191846020830284011164010000000083111715610eb257600080fd5b919080806020026020016040519081016040528093929190818152602001838360200280828437600081840152601f19601f82011690508083019250505050505050919291929050505061242b565b005b61117860048036036080811015610f1957600080fd5b8101908080359060200190640100000000811115610f3657600080fd5b820183602082011115610f4857600080fd5b80359060200191846020830284011164010000000083111715610f6a57600080fd5b919080806020026020016040519081016040528093929190818152602001838360200280828437600081840152601f19601f82011690508083019250505050505050919291929080359060200190640100000000811115610fca57600080fd5b820183602082011115610fdc57600080fd5b80359060200191846020830284011164010000000083111715610ffe57600080fd5b919080806020026020016040519081016040528093929190818152602001838360200280828437600081840152601f19601f8201169050808301925050505050505091929192908035906020019064010000000081111561105e57600080fd5b82018360208201111561107057600080fd5b8035906020019184602083028401116401000000008311171561109257600080fd5b919080806020026020016040519081016040528093929190818152602001838360200280828437600081840152601f19601f820116905080830192505050505050509192919290803590602001906401000000008111156110f257600080fd5b82018360208201111561110457600080fd5b8035906020019184600183028401116401000000008311171561112657600080fd5b91908080601f016020809104026020016040519081016040528093929190818152602001838380828437600081840152601f19601f8201169050808301925050505050505091929192905050506125a4565b005b61118261270e565b604051808273ffffffffffffffffffffffffffffffffffffffff16815260200191505060405180910390f35b6111fc600480360360408110156111c457600080fd5b81019080803573ffffffffffffffffffffffffffffffffffffffff169060200190929190803515159060200190929190505050612738565b005b6112346004803603604081101561121457600080fd5b810190808035906020019092919080359060200190929190505050612837565b005b6112626004803603602081101561124c57600080fd5b8101908080359060200190929190505050612846565b6040518082815260200191505060405180910390f35b611280612863565b604051808373ffffffffffffffffffffffffffffffffffffffff1681526020018281526020019250505060405180910390f35b611315600480360360408110156112c957600080fd5b81019080803573ffffffffffffffffffffffffffffffffffffffff169060200190929190803573ffffffffffffffffffffffffffffffffffffffff169060200190929190505050612895565b60405180821515815260200191505060405180910390f35b61143a600480360360a081101561134357600080fd5b81019080803573ffffffffffffffffffffffffffffffffffffffff169060200190929190803573ffffffffffffffffffffffffffffffffffffffff1690602001909291908035906020019092919080359060200190929190803590602001906401000000008111156113b457600080fd5b8201836020820111156113c657600080fd5b803590602001918460018302840111640100000000831117156113e857600080fd5b91908080601f016020809104026020016040519081016040528093929190818152602001838380828437600081840152601f19601f820116905080830192505050505050509192919290505050612929565b005b6114726004803603604081101561145257600080fd5b810190808035906020019092919080359060200190929190505050612a65565b005b60008060008473ffffffffffffffffffffffffffffffffffffffff1673ffffffffffffffffffffffffffffffffffffffff168152602001908152602001600020600083815260200190815260200160002054905092915050565b60006114d982612b27565b9050919050565b600660009054906101000a900473ffffffffffffffffffffffffffffffffffffffff1673ffffffffffffffffffffffffffffffffffffffff163373ffffffffffffffffffffffffffffffffffffffff1614611586576040517f08c379a00000000000000000000000000000000000000000000000000000000081526004018080602001828103825260268152602001806148bc6026913960400191505060405180910390fd5b6115b2600660009054906101000a900473ffffffffffffffffffffffffffffffffffffffff1682612ba9565b50565b60038054600181600116156101000203166002900480601f01602080910402602001604051908101604052809291908181526020018280546001816001161561010002031660029004801561164b5780601f106116205761010080835404028352916020019161164b565b820191906000526020600020905b81548152906001019060200180831161162e57829003601f168201915b505050505081565b600660009054906101000a900473ffffffffffffffffffffffffffffffffffffffff1673ffffffffffffffffffffffffffffffffffffffff163373ffffffffffffffffffffffffffffffffffffffff16146116f9576040517f08c379a00000000000000000000000000000000000000000000000000000000081526004018080602001828103825260268152602001806148bc6026913960400191505060405180910390fd5b61170282612cdc565b61170c8282612ba9565b5050565b600760009054906101000a900473ffffffffffffffffffffffffffffffffffffffff1673ffffffffffffffffffffffffffffffffffffffff163373ffffffffffffffffffffffffffffffffffffffff16146117b6576040517f08c379a000000000000000000000000000000000000000000000000000000000815260040180806020018281038252602a8152602001806146c4602a913960400191505060405180910390fd5b61180382828080601f016020809104026020016040519081016040528093929190818152602001838380828437600081840152601f19601f82011690508083019250505050505050612e22565b5050565b6060600261181483612e3c565b60405160200180838054600181600116156101000203166002900480156118725780601f10611850576101008083540402835291820191611872565b820191906000526020600020905b81548152906001019060200180831161185e575b505082805190602001908083835b602083106118a35780518252602082019150602081019050602083039250611880565b6001836020036101000a038019825116818451168082178552505050505050905001807f2e6a736f6e000000000000000000000000000000000000000000000000000000815250600501925050506040516020818303038152906040529050919050565b6000600760009054906101000a900473ffffffffffffffffffffffffffffffffffffffff16905090565b826000611960600660009054906101000a900473ffffffffffffffffffffffffffffffffffffffff1683611474565b1161196a57600080fd5b60008360096000878152602001908152602001600020540290506000600860009054906101000a900473ffffffffffffffffffffffffffffffffffffffff1673ffffffffffffffffffffffffffffffffffffffff166323b872dd33600660009054906101000a900473ffffffffffffffffffffffffffffffffffffffff16856040518463ffffffff1660e01b8152600401808473ffffffffffffffffffffffffffffffffffffffff1681526020018373ffffffffffffffffffffffffffffffffffffffff1681526020018281526020019350505050602060405180830381600087803b158015611a5957600080fd5b505af1158015611a6d573d6000803e3d6000fd5b505050506040513d6020811015611a8357600080fd5b8101908080519060200190929190505050905080611b09576040517f08c379a00000000000000000000000000000000000000000000000000000000081526004018080602001828103825260208152602001807f427579657220436f756c646e2774205472616e736665722043757272656e637981525060200191505060405180910390fd5b611b37600660009054906101000a900473ffffffffffffffffffffffffffffffffffffffff16338888612f86565b611b67600660009054906101000a900473ffffffffffffffffffffffffffffffffffffffff163388885a8961317a565b505050505050565b611bfc33858580806020026020016040519081016040528093929190818152602001838360200280828437600081840152601f19601f82011690508083019250505050505050848480806020026020016040519081016040528093929190818152602001838360200280828437600081840152601f19601f8201169050808301925050505050505061338a565b50505050565b600080611c0d6144fa565b60046040518060400160405290816000820160009054906101000a900473ffffffffffffffffffffffffffffffffffffffff1673ffffffffffffffffffffffffffffffffffffffff1673ffffffffffffffffffffffffffffffffffffffff16815260200160018201548152505090508060000151611cac6103e8611c9e8460200151886135fd90919063ffffffff16565b6136a090919063ffffffff16565b92509250509250929050565b8473ffffffffffffffffffffffffffffffffffffffff163373ffffffffffffffffffffffffffffffffffffffff161480611cf85750611cf78533612895565b5b611d4d576040517f08c379a000000000000000000000000000000000000000000000000000000000815260040180806020018281038252602f8152602001806147e4602f913960400191505060405180910390fd5b600073ffffffffffffffffffffffffffffffffffffffff168473ffffffffffffffffffffffffffffffffffffffff161415611dd3576040517f08c379a00000000000000000000000000000000000000000000000000000000081526004018080602001828103825260308152602001806146ee6030913960400191505060405180910390fd5b611ddf8585858561372f565b611ded858585855a86613a91565b5050505050565b600660009054906101000a900473ffffffffffffffffffffffffffffffffffffffff1673ffffffffffffffffffffffffffffffffffffffff163373ffffffffffffffffffffffffffffffffffffffff161480611e9d5750600760009054906101000a900473ffffffffffffffffffffffffffffffffffffffff1673ffffffffffffffffffffffffffffffffffffffff163373ffffffffffffffffffffffffffffffffffffffff16145b611ef2576040517f08c379a000000000000000000000000000000000000000000000000000000000815260040180806020018281038252603a81526020018061462b603a913960400191505060405180910390fd5b80600860006101000a81548173ffffffffffffffffffffffffffffffffffffffff021916908373ffffffffffffffffffffffffffffffffffffffff16021790555050565b60006001600a5401905090565b600660009054906101000a900473ffffffffffffffffffffffffffffffffffffffff1673ffffffffffffffffffffffffffffffffffffffff163373ffffffffffffffffffffffffffffffffffffffff1614611fe9576040517f08c379a00000000000000000000000000000000000000000000000000000000081526004018080602001828103825260268152602001806148bc6026913960400191505060405180910390fd5b612017600660009054906101000a900473ffffffffffffffffffffffffffffffffffffffff16858584613d23565b81600960008681526020019081526020016000208190555083600a5410156120415783600a819055505b50505050565b606081518351146120a3576040517f08c379a000000000000000000000000000000000000000000000000000000000815260040180806020018281038252602c81526020018061477f602c913960400191505060405180910390fd5b6060835167ffffffffffffffff811180156120bd57600080fd5b506040519080825280602002602001820160405280156120ec5781602001602082028036833780820191505090505b50905060005b84518110156121965760008086838151811061210a57fe5b602002602001015173ffffffffffffffffffffffffffffffffffffffff1673ffffffffffffffffffffffffffffffffffffffff168152602001908152602001600020600085838151811061215a57fe5b602002602001015181526020019081526020016000205482828151811061217d57fe5b60200260200101818152505080806001019150506120f2565b508091505092915050565b600760009054906101000a900473ffffffffffffffffffffffffffffffffffffffff1673ffffffffffffffffffffffffffffffffffffffff163373ffffffffffffffffffffffffffffffffffffffff1614612247576040517f08c379a000000000000000000000000000000000000000000000000000000000815260040180806020018281038252602a8152602001806146c4602a913960400191505060405180910390fd5b61229482828080601f016020809104026020016040519081016040528093929190818152602001838380828437600081840152601f19601f82011690508083019250505050505050613e72565b5050565b6000600860009054906101000a900473ffffffffffffffffffffffffffffffffffffffff1673ffffffffffffffffffffffffffffffffffffffff166370a08231336040518263ffffffff1660e01b8152600401808273ffffffffffffffffffffffffffffffffffffffff16815260200191505060206040518083038186803b15801561232357600080fd5b505afa158015612337573d6000803e3d6000fd5b505050506040513d602081101561234d57600080fd5b8101908080519060200190929190505050905090565b6000600860009054906101000a900473ffffffffffffffffffffffffffffffffffffffff16905090565b60028054600181600116156101000203166002900480601f0160208091040260200160405190810160405280929190818152602001828054600181600116156101000203166002900480156124235780601f106123f857610100808354040283529160200191612423565b820191906000526020600020905b81548152906001019060200180831161240657829003601f168201915b505050505081565b600660009054906101000a900473ffffffffffffffffffffffffffffffffffffffff1673ffffffffffffffffffffffffffffffffffffffff163373ffffffffffffffffffffffffffffffffffffffff16146124d1576040517f08c379a00000000000000000000000000000000000000000000000000000000081526004018080602001828103825260268152602001806148bc6026913960400191505060405180910390fd5b8051825114612548576040517f08c379a000000000000000000000000000000000000000000000000000000000815260040180806020018281038252601c8152602001807f4c656e67746873206f6620617272617973206d757374206d617463680000000081525060200191505060405180910390fd5b60005b825181101561259f5781818151811061256057fe5b60200260200101516009600085848151811061257857fe5b6020026020010151815260200190815260200160002081905550808060010191505061254b565b505050565b600660009054906101000a900473ffffffffffffffffffffffffffffffffffffffff1673ffffffffffffffffffffffffffffffffffffffff163373ffffffffffffffffffffffffffffffffffffffff161461264a576040517f08c379a00000000000000000000000000000000000000000000000000000000081526004018080602001828103825260268152602001806148bc6026913960400191505060405180910390fd5b612678600660009054906101000a900473ffffffffffffffffffffffffffffffffffffffff16858584613e8c565b60005b84518110156127075784818151811061269057fe5b6020026020010151600a5410156126bc578481815181106126ad57fe5b6020026020010151600a819055505b8281815181106126c857fe5b6020026020010151600960008784815181106126e057fe5b6020026020010151815260200190815260200160002081905550808060010191505061267b565b5050505050565b6000600660009054906101000a900473ffffffffffffffffffffffffffffffffffffffff16905090565b80600160003373ffffffffffffffffffffffffffffffffffffffff1673ffffffffffffffffffffffffffffffffffffffff16815260200190815260200160002060008473ffffffffffffffffffffffffffffffffffffffff1673ffffffffffffffffffffffffffffffffffffffff16815260200190815260200160002060006101000a81548160ff0219169083151502179055508173ffffffffffffffffffffffffffffffffffffffff163373ffffffffffffffffffffffffffffffffffffffff167f17307eab39ab6107e8899845ad3d59bd9653f200f220920489ca2b5937696c318360405180821515815260200191505060405180910390a35050565b612842338383614110565b5050565b600060096000838152602001908152602001600020549050919050565b60048060000160009054906101000a900473ffffffffffffffffffffffffffffffffffffffff16908060010154905082565b6000600160008473ffffffffffffffffffffffffffffffffffffffff1673ffffffffffffffffffffffffffffffffffffffff16815260200190815260200160002060008373ffffffffffffffffffffffffffffffffffffffff1673ffffffffffffffffffffffffffffffffffffffff16815260200190815260200160002060009054906101000a900460ff16905092915050565b8473ffffffffffffffffffffffffffffffffffffffff163373ffffffffffffffffffffffffffffffffffffffff16148061296957506129688533612895565b5b6129be576040517f08c379a000000000000000000000000000000000000000000000000000000000815260040180806020018281038252602a815260200180614601602a913960400191505060405180910390fd5b600073ffffffffffffffffffffffffffffffffffffffff168473ffffffffffffffffffffffffffffffffffffffff161415612a44576040517f08c379a000000000000000000000000000000000000000000000000000000000815260040180806020018281038252602b8152602001806145d6602b913960400191505060405180910390fd5b612a5085858585612f86565b612a5e858585855a8661317a565b5050505050565b600660009054906101000a900473ffffffffffffffffffffffffffffffffffffffff1673ffffffffffffffffffffffffffffffffffffffff163373ffffffffffffffffffffffffffffffffffffffff1614612b0b576040517f08c379a00000000000000000000000000000000000000000000000000000000081526004018080602001828103825260268152602001806148bc6026913960400191505060405180910390fd5b8060096000848152602001908152602001600020819055505050565b60007f2a55205a000000000000000000000000000000000000000000000000000000007bffffffffffffffffffffffffffffffffffffffffffffffffffffffff1916827bffffffffffffffffffffffffffffffffffffffffffffffffffffffff19161415612b985760019050612ba4565b612ba18261424f565b90505b919050565b600073ffffffffffffffffffffffffffffffffffffffff168273ffffffffffffffffffffffffffffffffffffffff161415612c2f576040517f08c379a000000000000000000000000000000000000000000000000000000000815260040180806020018281038252603181526020018061474e6031913960400191505060405180910390fd5b6103e8811115612c8a576040517f08c379a00000000000000000000000000000000000000000000000000000000081526004018080602001828103825260398152602001806147ab6039913960400191505060405180910390fd5b81600460000160006101000a81548173ffffffffffffffffffffffffffffffffffffffff021916908373ffffffffffffffffffffffffffffffffffffffff160217905550806004600101819055505050565b600073ffffffffffffffffffffffffffffffffffffffff168173ffffffffffffffffffffffffffffffffffffffff161415612d62576040517f08c379a000000000000000000000000000000000000000000000000000000000815260040180806020018281038252602a81526020018061469a602a913960400191505060405180910390fd5b80600660006101000a81548173ffffffffffffffffffffffffffffffffffffffff021916908373ffffffffffffffffffffffffffffffffffffffff1602179055508073ffffffffffffffffffffffffffffffffffffffff16600660009054906101000a900473ffffffffffffffffffffffffffffffffffffffff1673ffffffffffffffffffffffffffffffffffffffff167f8be0079c531659141344cd1fd0a4f28419497f9722a3daafe3b4186f6b6457e060405160405180910390a350565b8060039080519060200190612e3892919061452a565b5050565b60606000821415612e84576040518060400160405280600181526020017f30000000000000000000000000000000000000000000000000000000000000008152509050612f81565b6000829050600083905060005b60008314612eb3578080600101915050600a8381612eab57fe5b049250612e91565b60608167ffffffffffffffff81118015612ecc57600080fd5b506040519080825280601f01601f191660200182016040528015612eff5781602001600182028036833780820191505090505b50905060006001830390505b60008414612f7857600a8481612f1d57fe5b0660300160f81b82828060019003935081518110612f3757fe5b60200101907effffffffffffffffffffffffffffffffffffffffffffffffffffffffffffff1916908160001a905350600a8481612f7057fe5b049350612f0b565b81955050505050505b919050565b612fe8816000808773ffffffffffffffffffffffffffffffffffffffff1673ffffffffffffffffffffffffffffffffffffffff1681526020019081526020016000206000858152602001908152602001600020546142d190919063ffffffff16565b6000808673ffffffffffffffffffffffffffffffffffffffff1673ffffffffffffffffffffffffffffffffffffffff16815260200190815260200160002060008481526020019081526020016000208190555061309d816000808673ffffffffffffffffffffffffffffffffffffffff1673ffffffffffffffffffffffffffffffffffffffff16815260200190815260200160002060008581526020019081526020016000205461435a90919063ffffffff16565b6000808573ffffffffffffffffffffffffffffffffffffffff1673ffffffffffffffffffffffffffffffffffffffff1681526020019081526020016000206000848152602001908152602001600020819055508273ffffffffffffffffffffffffffffffffffffffff168473ffffffffffffffffffffffffffffffffffffffff163373ffffffffffffffffffffffffffffffffffffffff167fc3d58168c5ae7397731d063d5bbf3d657854427343f4c083240f7aacaa2d0f628585604051808381526020018281526020019250505060405180910390a450505050565b6131998573ffffffffffffffffffffffffffffffffffffffff166143e2565b156133825760008573ffffffffffffffffffffffffffffffffffffffff1663f23a6e6184338a8989886040518763ffffffff1660e01b8152600401808673ffffffffffffffffffffffffffffffffffffffff1681526020018573ffffffffffffffffffffffffffffffffffffffff16815260200184815260200183815260200180602001828103825283818151815260200191508051906020019080838360005b8381101561325557808201518184015260208101905061323a565b50505050905090810190601f1680156132825780820380516001836020036101000a031916815260200191505b509650505050505050602060405180830381600088803b1580156132a557600080fd5b5087f11580156132b9573d6000803e3d6000fd5b50505050506040513d60208110156132d057600080fd5b8101908080519060200190929190505050905063f23a6e6160e01b7bffffffffffffffffffffffffffffffffffffffffffffffffffffffff1916817bffffffffffffffffffffffffffffffffffffffffffffffffffffffff191614613380576040517f08c379a000000000000000000000000000000000000000000000000000000000815260040180806020018281038252603a815260200180614882603a913960400191505060405180910390fd5b505b505050505050565b600082519050815181146133e9576040517f08c379a000000000000000000000000000000000000000000000000000000000815260040180806020018281038252603081526020018061471e6030913960400191505060405180910390fd5b60005b818110156134ef5761347c83828151811061340357fe5b60200260200101516000808873ffffffffffffffffffffffffffffffffffffffff1673ffffffffffffffffffffffffffffffffffffffff168152602001908152602001600020600087858151811061345757fe5b60200260200101518152602001908152602001600020546142d190919063ffffffff16565b6000808773ffffffffffffffffffffffffffffffffffffffff1673ffffffffffffffffffffffffffffffffffffffff16815260200190815260200160002060008684815181106134c857fe5b602002602001015181526020019081526020016000208190555080806001019150506133ec565b50600073ffffffffffffffffffffffffffffffffffffffff168473ffffffffffffffffffffffffffffffffffffffff163373ffffffffffffffffffffffffffffffffffffffff167f4a39dc06d4c0dbc64b70af90fd698a233a518aa5d07e595d983b8c0526c8f7fb8686604051808060200180602001838103835285818151815260200191508051906020019060200280838360005b838110156135a0578082015181840152602081019050613585565b50505050905001838103825284818151815260200191508051906020019060200280838360005b838110156135e25780820151818401526020810190506135c7565b5050505090500194505050505060405180910390a450505050565b600080831415613610576000905061369a565b600082840290508284828161362157fe5b0414613695576040517f08c379a00000000000000000000000000000000000000000000000000000000081526004018080602001828103825260168152602001807f536166654d617468236d756c3a204f564552464c4f570000000000000000000081525060200191505060405180910390fd5b809150505b92915050565b6000808211613717576040517f08c379a000000000000000000000000000000000000000000000000000000000815260040180806020018281038252601e8152602001807f536166654d617468236469763a204449564953494f4e5f42595f5a45524f000081525060200191505060405180910390fd5b600082848161372257fe5b0490508091505092915050565b8051825114613789576040517f08c379a00000000000000000000000000000000000000000000000000000000081526004018080602001828103825260358152602001806146656035913960400191505060405180910390fd5b60008251905060005b81811015613983576138228382815181106137a957fe5b60200260200101516000808973ffffffffffffffffffffffffffffffffffffffff1673ffffffffffffffffffffffffffffffffffffffff16815260200190815260200160002060008785815181106137fd57fe5b60200260200101518152602001908152602001600020546142d190919063ffffffff16565b6000808873ffffffffffffffffffffffffffffffffffffffff1673ffffffffffffffffffffffffffffffffffffffff168152602001908152602001600020600086848151811061386e57fe5b602002602001015181526020019081526020016000208190555061391083828151811061389757fe5b60200260200101516000808873ffffffffffffffffffffffffffffffffffffffff1673ffffffffffffffffffffffffffffffffffffffff16815260200190815260200160002060008785815181106138eb57fe5b602002602001015181526020019081526020016000205461435a90919063ffffffff16565b6000808773ffffffffffffffffffffffffffffffffffffffff1673ffffffffffffffffffffffffffffffffffffffff168152602001908152602001600020600086848151811061395c57fe5b60200260200101518152602001908152602001600020819055508080600101915050613792565b508373ffffffffffffffffffffffffffffffffffffffff168573ffffffffffffffffffffffffffffffffffffffff163373ffffffffffffffffffffffffffffffffffffffff167f4a39dc06d4c0dbc64b70af90fd698a233a518aa5d07e595d983b8c0526c8f7fb8686604051808060200180602001838103835285818151815260200191508051906020019060200280838360005b83811015613a33578082015181840152602081019050613a18565b50505050905001838103825284818151815260200191508051906020019060200280838360005b83811015613a75578082015181840152602081019050613a5a565b5050505090500194505050505060405180910390a45050505050565b613ab08573ffffffffffffffffffffffffffffffffffffffff166143e2565b15613d1b5760008573ffffffffffffffffffffffffffffffffffffffff1663bc197c8184338a8989886040518763ffffffff1660e01b8152600401808673ffffffffffffffffffffffffffffffffffffffff1681526020018573ffffffffffffffffffffffffffffffffffffffff168152602001806020018060200180602001848103845287818151815260200191508051906020019060200280838360005b83811015613b6b578082015181840152602081019050613b50565b50505050905001848103835286818151815260200191508051906020019060200280838360005b83811015613bad578082015181840152602081019050613b92565b50505050905001848103825285818151815260200191508051906020019080838360005b83811015613bec578082015181840152602081019050613bd1565b50505050905090810190601f168015613c195780820380516001836020036101000a031916815260200191505b5098505050505050505050602060405180830381600088803b158015613c3e57600080fd5b5087f1158015613c52573d6000803e3d6000fd5b50505050506040513d6020811015613c6957600080fd5b8101908080519060200190929190505050905063bc197c8160e01b7bffffffffffffffffffffffffffffffffffffffffffffffffffffffff1916817bffffffffffffffffffffffffffffffffffffffffffffffffffffffff191614613d19576040517f08c379a000000000000000000000000000000000000000000000000000000000815260040180806020018281038252603f815260200180614843603f913960400191505060405180910390fd5b505b505050505050565b613d85826000808773ffffffffffffffffffffffffffffffffffffffff1673ffffffffffffffffffffffffffffffffffffffff16815260200190815260200160002060008681526020019081526020016000205461435a90919063ffffffff16565b6000808673ffffffffffffffffffffffffffffffffffffffff1673ffffffffffffffffffffffffffffffffffffffff1681526020019081526020016000206000858152602001908152602001600020819055508373ffffffffffffffffffffffffffffffffffffffff16600073ffffffffffffffffffffffffffffffffffffffff163373ffffffffffffffffffffffffffffffffffffffff167fc3d58168c5ae7397731d063d5bbf3d657854427343f4c083240f7aacaa2d0f628686604051808381526020018281526020019250505060405180910390a4613e6c60008585855a8661317a565b50505050565b8060029080519060200190613e8892919061452a565b5050565b8151835114613ee6576040517f08c379a00000000000000000000000000000000000000000000000000000000081526004018080602001828103825260308152602001806148136030913960400191505060405180910390fd5b60008351905060005b81811015613ff257613f7f848281518110613f0657fe5b60200260200101516000808973ffffffffffffffffffffffffffffffffffffffff1673ffffffffffffffffffffffffffffffffffffffff1681526020019081526020016000206000888581518110613f5a57fe5b602002602001015181526020019081526020016000205461435a90919063ffffffff16565b6000808873ffffffffffffffffffffffffffffffffffffffff1673ffffffffffffffffffffffffffffffffffffffff1681526020019081526020016000206000878481518110613fcb57fe5b60200260200101518152602001908152602001600020819055508080600101915050613eef565b508473ffffffffffffffffffffffffffffffffffffffff16600073ffffffffffffffffffffffffffffffffffffffff163373ffffffffffffffffffffffffffffffffffffffff167f4a39dc06d4c0dbc64b70af90fd698a233a518aa5d07e595d983b8c0526c8f7fb8787604051808060200180602001838103835285818151815260200191508051906020019060200280838360005b838110156140a3578082015181840152602081019050614088565b50505050905001838103825284818151815260200191508051906020019060200280838360005b838110156140e55780820151818401526020810190506140ca565b5050505090500194505050505060405180910390a461410960008686865a87613a91565b5050505050565b614172816000808673ffffffffffffffffffffffffffffffffffffffff1673ffffffffffffffffffffffffffffffffffffffff1681526020019081526020016000206000858152602001908152602001600020546142d190919063ffffffff16565b6000808573ffffffffffffffffffffffffffffffffffffffff1673ffffffffffffffffffffffffffffffffffffffff168152602001908152602001600020600084815260200190815260200160002081905550600073ffffffffffffffffffffffffffffffffffffffff168373ffffffffffffffffffffffffffffffffffffffff163373ffffffffffffffffffffffffffffffffffffffff167fc3d58168c5ae7397731d063d5bbf3d657854427343f4c083240f7aacaa2d0f628585604051808381526020018281526020019250505060405180910390a4505050565b60007f0e89341c000000000000000000000000000000000000000000000000000000007bffffffffffffffffffffffffffffffffffffffffffffffffffffffff1916827bffffffffffffffffffffffffffffffffffffffffffffffffffffffff191614156142c057600190506142cc565b6142c982614427565b90505b919050565b600082821115614349576040517f08c379a00000000000000000000000000000000000000000000000000000000081526004018080602001828103825260178152602001807f536166654d617468237375623a20554e444552464c4f5700000000000000000081525060200191505060405180910390fd5b600082840390508091505092915050565b6000808284019050838110156143d8576040517f08c379a00000000000000000000000000000000000000000000000000000000081526004018080602001828103825260168152602001807f536166654d617468236164643a204f564552464c4f570000000000000000000081525060200191505060405180910390fd5b8091505092915050565b600080823f90506000801b811415801561441f57507fc5d2460186f7233c927e7db2dcc703c0e500b653ca82273b7bfad8045d85a47060001b8114155b915050919050565b60007fd9b67a26000000000000000000000000000000000000000000000000000000007bffffffffffffffffffffffffffffffffffffffffffffffffffffffff1916827bffffffffffffffffffffffffffffffffffffffffffffffffffffffff1916141561449857600190506144a4565b6144a1826144a9565b90505b919050565b60006301ffc9a760e01b7bffffffffffffffffffffffffffffffffffffffffffffffffffffffff1916827bffffffffffffffffffffffffffffffffffffffffffffffffffffffff1916149050919050565b6040518060400160405280600073ffffffffffffffffffffffffffffffffffffffff168152602001600081525090565b828054600181600116156101000203166002900490600052602060002090601f01602090048101928261456057600085556145a7565b82601f1061457957805160ff19168380011785556145a7565b828001600101855582156145a7579182015b828111156145a657825182559160200191906001019061458b565b5b5090506145b491906145b8565b5090565b5b808211156145d15760008160009055506001016145b9565b509056fe4552433131353523736166655472616e7366657246726f6d3a20494e56414c49445f524543495049454e544552433131353523736166655472616e7366657246726f6d3a20494e56414c49445f4f50455241544f524f776e61626c65236f6e6c794f776e65724f7243726561746f723a2053454e4445525f49535f4e4f545f4f574e45525f4f525f43524541544f5245524331313535235f7361666542617463685472616e7366657246726f6d3a20494e56414c49445f4152524159535f4c454e4754484f776e61626c65237472616e736665724f776e6572736869703a20494e56414c49445f414444524553534f776e61626c65236f6e6c7943726561746f723a2053454e4445525f49535f4e4f545f43524541544f5245524331313535237361666542617463685472616e7366657246726f6d3a20494e56414c49445f524543495049454e54455243313135354d696e744275726e2362617463684275726e3a20494e56414c49445f4152524159535f4c454e47544845524332393831476c6f62616c235f736574476c6f62616c526f79616c74793a20524543495049454e545f49535f307830455243313135352362616c616e63654f6642617463683a20494e56414c49445f41525241595f4c454e47544845524332393831476c6f62616c235f736574476c6f62616c526f79616c74793a204645455f49535f41424f56455f3130305f50455243454e5445524331313535237361666542617463685472616e7366657246726f6d3a20494e56414c49445f4f50455241544f52455243313135354d696e744275726e2362617463684d696e743a20494e56414c49445f4152524159535f4c454e47544845524331313535235f63616c6c6f6e45524331313535426174636852656365697665643a20494e56414c49445f4f4e5f524543454956455f4d45535341474545524331313535235f63616c6c6f6e4552433131353552656365697665643a20494e56414c49445f4f4e5f524543454956455f4d4553534147454f776e61626c65236f6e6c794f776e65723a2053454e4445525f49535f4e4f545f4f574e4552a2646970667358221220f8be9b0af703d13e5e765bcac6f14a76a053a21288775e19ac4cc1635a722a0264736f6c6343000704003345524332393831476c6f62616c235f736574476c6f62616c526f79616c74793a20524543495049454e545f49535f30783045524332393831476c6f62616c235f736574476c6f62616c526f79616c74793a204645455f49535f41424f56455f3130305f50455243454e544f776e61626c65236f6e6c794f776e65723a2053454e4445525f49535f4e4f545f4f574e4552a264697066735822122056bb00aacf515502942401f2091f4f63697148058f96d200cb26e302fd8b0fe964736f6c63430007040033",
  "immutableReferences": {},
  "source": "// SPDX-License-Identifier: UNLICENSED\npragma solidity ^0.7.4;\npragma experimental ABIEncoderV2;\n\nimport \"./Artist.sol\";\nimport \"./utils/OwnableSimple.sol\";\n\ncontract Deployer is OwnableSimple {\n    mapping(address => ArtistCollection) internal artistOwnerMap;\n\n    constructor () OwnableSimple(msg.sender) {}\n\n    modifier isNotDeployed(address _artistAddr) {\n        require(address(artistOwnerMap[_artistAddr])==address(0) || msg.sender == owner, \"Artist Collection already deployed\");\n        _;\n    }\n\n    function deploy(string memory _collectionName, string memory _baseURI, address _artistAddr, uint256 _royaltyBasisPoints, address _currency) external isNotDeployed(_artistAddr){\n        artistOwnerMap[_artistAddr] = new ArtistCollection(_collectionName, _baseURI, _artistAddr, _royaltyBasisPoints, _currency);\n    }\n\n    function getAllCollection(address[] memory _artistAddrs) external view returns(address[] memory) {\n        address[] memory artistCollectionAddrs;\n        for (uint i = 0; i < _artistAddrs.length; i++) {\n            artistCollectionAddrs[i] = address(artistOwnerMap[_artistAddrs[i]]);\n        }\n        return artistCollectionAddrs;\n    }\n\n    function setBaseURIBatch(address[] memory _artistAddrs, string[] memory _baseURIs) external onlyOwner {\n        require(_artistAddrs.length == _baseURIs.length, \"Array lengths must match\");\n        for (uint i = 0; i < _artistAddrs.length; i++) {\n            artistOwnerMap[_artistAddrs[i]].setBaseURI(_baseURIs[i]);\n        }\n    }\n\n    function setCurrencyBatch(address[] memory _artistAddrs, address[] memory _currencies) external onlyOwner {\n        require(_artistAddrs.length == _currencies.length, \"Array lengths must match\");\n        for (uint i = 0; i < _artistAddrs.length; i++) {\n            artistOwnerMap[_artistAddrs[i]].setCurrency(_currencies[i]);\n        }\n    }\n}\n",
  "sourcePath": "/Users/shubhaankar/github.com/solo-nw/contracts/contracts/Deployer.sol",
  "compiler": {
    "name": "solc",
    "version": "0.7.4+commit.3f05b770.Emscripten.clang"
  },
  "schemaVersion": "3.4.11",
  "updatedAt": "2023-01-03T09:58:57.786Z",
  "networkType": "ethereum",
  "devdoc": {
    "kind": "dev",
    "methods": {},
    "version": 1
  },
  "userdoc": {
    "kind": "user",
    "methods": {},
    "version": 1
  }
}