{
  "contractName": "ERC1155Metadata",
  "abi": [
    {
      "inputs": [
        {
          "internalType": "string",
          "name": "_name",
          "type": "string"
        },
        {
          "internalType": "string",
          "name": "_baseURI",
          "type": "string"
        }
      ],
      "stateMutability": "nonpayable",
      "type": "constructor"
    },
    {
      "anonymous": false,
      "inputs": [
        {
          "indexed": false,
          "internalType": "string",
          "name": "_uri",
          "type": "string"
        },
        {
          "indexed": true,
          "internalType": "uint256",
          "name": "_id",
          "type": "uint256"
        }
      ],
      "name": "URI",
      "type": "event"
    },
    {
      "inputs": [],
      "name": "baseURI",
      "outputs": [
        {
          "internalType": "string",
          "name": "",
          "type": "string"
        }
      ],
      "stateMutability": "view",
      "type": "function"
    },
    {
      "inputs": [],
      "name": "name",
      "outputs": [
        {
          "internalType": "string",
          "name": "",
          "type": "string"
        }
      ],
      "stateMutability": "view",
      "type": "function"
    },
    {
      "inputs": [
        {
          "internalType": "uint256",
          "name": "_id",
          "type": "uint256"
        }
      ],
      "name": "uri",
      "outputs": [
        {
          "internalType": "string",
          "name": "",
          "type": "string"
        }
      ],
      "stateMutability": "view",
      "type": "function"
    },
    {
      "inputs": [
        {
          "internalType": "bytes4",
          "name": "_interfaceID",
          "type": "bytes4"
        }
      ],
      "name": "supportsInterface",
      "outputs": [
        {
          "internalType": "bool",
          "name": "",
          "type": "bool"
        }
      ],
      "stateMutability": "pure",
      "type": "function"
    }
  ],
  "bytecode": "0x608060405234801561001057600080fd5b506040516109843803806109848339818101604052604081101561003357600080fd5b810190808051604051939291908464010000000082111561005357600080fd5b8382019150602082018581111561006957600080fd5b825186600182028301116401000000008211171561008657600080fd5b8083526020830192505050908051906020019080838360005b838110156100ba57808201518184015260208101905061009f565b50505050905090810190601f1680156100e75780820380516001836020036101000a031916815260200191505b506040526020018051604051939291908464010000000082111561010a57600080fd5b8382019150602082018581111561012057600080fd5b825186600182028301116401000000008211171561013d57600080fd5b8083526020830192505050908051906020019080838360005b83811015610171578082015181840152602081019050610156565b50505050905090810190601f16801561019e5780820380516001836020036101000a031916815260200191505b5060405250505081600190805190602001906101bb9291906101da565b5080600090805190602001906101d29291906101da565b505050610285565b828054600181600116156101000203166002900490600052602060002090601f0160209004810192826102105760008555610257565b82601f1061022957805160ff1916838001178555610257565b82800160010185558215610257579182015b8281111561025657825182559160200191906001019061023b565b5b5090506102649190610268565b5090565b5b80821115610281576000816000905550600101610269565b5090565b6106f0806102946000396000f3fe608060405234801561001057600080fd5b506004361061004c5760003560e01c806301ffc9a71461005157806306fdde03146100b45780630e89341c146101375780636c0360eb146101de575b600080fd5b61009c6004803603602081101561006757600080fd5b8101908080357bffffffffffffffffffffffffffffffffffffffffffffffffffffffff19169060200190929190505050610261565b60405180821515815260200191505060405180910390f35b6100bc6102e3565b6040518080602001828103825283818151815260200191508051906020019080838360005b838110156100fc5780820151818401526020810190506100e1565b50505050905090810190601f1680156101295780820380516001836020036101000a031916815260200191505b509250505060405180910390f35b6101636004803603602081101561014d57600080fd5b8101908080359060200190929190505050610381565b6040518080602001828103825283818151815260200191508051906020019080838360005b838110156101a3578082015181840152602081019050610188565b50505050905090810190601f1680156101d05780820380516001836020036101000a031916815260200191505b509250505060405180910390f35b6101e6610481565b6040518080602001828103825283818151815260200191508051906020019080838360005b8381101561022657808201518184015260208101905061020b565b50505050905090810190601f1680156102535780820380516001836020036101000a031916815260200191505b509250505060405180910390f35b60007f0e89341c000000000000000000000000000000000000000000000000000000007bffffffffffffffffffffffffffffffffffffffffffffffffffffffff1916827bffffffffffffffffffffffffffffffffffffffffffffffffffffffff191614156102d257600190506102de565b6102db8261051f565b90505b919050565b60018054600181600116156101000203166002900480601f0160208091040260200160405190810160405280929190818152602001828054600181600116156101000203166002900480156103795780601f1061034e57610100808354040283529160200191610379565b820191906000526020600020905b81548152906001019060200180831161035c57829003601f168201915b505050505081565b6060600061038e83610570565b60405160200180838054600181600116156101000203166002900480156103ec5780601f106103ca5761010080835404028352918201916103ec565b820191906000526020600020905b8154815290600101906020018083116103d8575b505082805190602001908083835b6020831061041d57805182526020820191506020810190506020830392506103fa565b6001836020036101000a038019825116818451168082178552505050505050905001807f2e6a736f6e000000000000000000000000000000000000000000000000000000815250600501925050506040516020818303038152906040529050919050565b60008054600181600116156101000203166002900480601f0160208091040260200160405190810160405280929190818152602001828054600181600116156101000203166002900480156105175780601f106104ec57610100808354040283529160200191610517565b820191906000526020600020905b8154815290600101906020018083116104fa57829003601f168201915b505050505081565b60006301ffc9a760e01b7bffffffffffffffffffffffffffffffffffffffffffffffffffffffff1916827bffffffffffffffffffffffffffffffffffffffffffffffffffffffff1916149050919050565b606060008214156105b8576040518060400160405280600181526020017f300000000000000000000000000000000000000000000000000000000000000081525090506106b5565b6000829050600083905060005b600083146105e7578080600101915050600a83816105df57fe5b0492506105c5565b60608167ffffffffffffffff8111801561060057600080fd5b506040519080825280601f01601f1916602001820160405280156106335781602001600182028036833780820191505090505b50905060006001830390505b600084146106ac57600a848161065157fe5b0660300160f81b8282806001900393508151811061066b57fe5b60200101907effffffffffffffffffffffffffffffffffffffffffffffffffffffffffffff1916908160001a905350600a84816106a457fe5b04935061063f565b81955050505050505b91905056fea2646970667358221220fe6fef0f8632820059034be258dfa85d0c20c8b90c6ec86528defe97db065ef064736f6c63430007040033",
  "immutableReferences": {},
  "source": "// SPDX-License-Identifier: Apache-2.0\npragma solidity 0.7.4;\nimport \"../../interfaces/IERC1155Metadata.sol\";\nimport \"../../utils/ERC165.sol\";\n\n\n/**\n * @notice Contract that handles metadata related methods.\n * @dev Methods assume a deterministic generation of URI based on token IDs.\n *      Methods also assume that URI uses hex representation of token IDs.\n */\ncontract ERC1155Metadata is IERC1155Metadata, ERC165 {\n  // URI's default URI prefix\n  string public baseURI;\n  string public name;\n\n  // set the initial name and base URI\n  constructor(string memory _name, string memory _baseURI) {\n    name = _name;\n    baseURI = _baseURI;\n  }\n\n  /***********************************|\n  |     Metadata Public Functions     |\n  |__________________________________*/\n\n  /**\n   * @notice A distinct Uniform Resource Identifier (URI) for a given token.\n   * @dev URIs are defined in RFC 3986.\n   *      URIs are assumed to be deterministically generated based on token ID\n   * @return URI string\n   */\n  function uri(uint256 _id) public override view returns (string memory) {\n    return string(abi.encodePacked(baseURI, _uint2str(_id), \".json\"));\n  }\n\n\n  /***********************************|\n  |    Metadata Internal Functions    |\n  |__________________________________*/\n\n  /**\n   * @notice Will emit default URI log event for corresponding token _id\n   * @param _tokenIDs Array of IDs of tokens to log default URI\n   */\n  function _logURIs(uint256[] memory _tokenIDs) internal {\n    string memory baseURL = baseURI;\n    string memory tokenURI;\n\n    for (uint256 i = 0; i < _tokenIDs.length; i++) {\n      tokenURI = string(abi.encodePacked(baseURL, _uint2str(_tokenIDs[i]), \".json\"));\n      emit URI(tokenURI, _tokenIDs[i]);\n    }\n  }\n\n  /**\n   * @notice Will update the base URL of token's URI\n   * @param _newBaseMetadataURI New base URL of token's URI\n   */\n  function _setBaseMetadataURI(string memory _newBaseMetadataURI) internal {\n    baseURI = _newBaseMetadataURI;\n  }\n\n  /**\n   * @notice Will update the name of the contract\n   * @param _newName New contract name\n   */\n  function _setContractName(string memory _newName) internal {\n    name = _newName;\n  }\n\n  /**\n   * @notice Query if a contract implements an interface\n   * @param _interfaceID  The interface identifier, as specified in ERC-165\n   * @return `true` if the contract implements `_interfaceID` and\n   */\n  function supportsInterface(bytes4 _interfaceID) public override virtual pure returns (bool) {\n    if (_interfaceID == type(IERC1155Metadata).interfaceId) {\n      return true;\n    }\n    return super.supportsInterface(_interfaceID);\n  }\n\n\n  /***********************************|\n  |    Utility Internal Functions     |\n  |__________________________________*/\n\n  /**\n   * @notice Convert uint256 to string\n   * @param _i Unsigned integer to convert to string\n   */\n  function _uint2str(uint256 _i) internal pure returns (string memory _uintAsString) {\n    if (_i == 0) {\n      return \"0\";\n    }\n\n    uint256 j = _i;\n    uint256 ii = _i;\n    uint256 len;\n\n    // Get number of bytes\n    while (j != 0) {\n      len++;\n      j /= 10;\n    }\n\n    bytes memory bstr = new bytes(len);\n    uint256 k = len - 1;\n\n    // Get each individual ASCII\n    while (ii != 0) {\n      bstr[k--] = byte(uint8(48 + ii % 10));\n      ii /= 10;\n    }\n\n    // Convert to string\n    return string(bstr);\n  }\n}\n",
  "sourcePath": "@0xsequence/erc-1155/contracts/tokens/ERC1155/ERC1155Metadata.sol",
  "compiler": {
    "name": "solc",
    "version": "0.7.4+commit.3f05b770.Emscripten.clang"
  },
  "schemaVersion": "3.4.11",
  "updatedAt": "2022-12-28T05:05:48.008Z",
  "devdoc": {
    "details": "Methods assume a deterministic generation of URI based on token IDs.      Methods also assume that URI uses hex representation of token IDs.",
    "kind": "dev",
    "methods": {
      "supportsInterface(bytes4)": {
        "params": {
          "_interfaceID": "The interface identifier, as specified in ERC-165"
        },
        "returns": {
          "_0": "`true` if the contract implements `_interfaceID` and"
        }
      },
      "uri(uint256)": {
        "details": "URIs are defined in RFC 3986.      URIs are assumed to be deterministically generated based on token ID",
        "returns": {
          "_0": "URI string"
        }
      }
    },
    "version": 1
  },
  "userdoc": {
    "kind": "user",
    "methods": {
      "supportsInterface(bytes4)": {
        "notice": "Query if a contract implements an interface"
      },
      "uri(uint256)": {
        "notice": "A distinct Uniform Resource Identifier (URI) for a given token."
      }
    },
    "notice": "Contract that handles metadata related methods.",
    "version": 1
  }
}