{
  "contractName": "ERC2981Global",
  "abi": [
    {
      "inputs": [],
      "name": "globalRoyaltyInfo",
      "outputs": [
        {
          "internalType": "address",
          "name": "receiver",
          "type": "address"
        },
        {
          "internalType": "uint256",
          "name": "feeBasisPoints",
          "type": "uint256"
        }
      ],
      "stateMutability": "view",
      "type": "function"
    },
    {
      "inputs": [
        {
          "internalType": "uint256",
          "name": "",
          "type": "uint256"
        },
        {
          "internalType": "uint256",
          "name": "_saleCost",
          "type": "uint256"
        }
      ],
      "name": "royaltyInfo",
      "outputs": [
        {
          "internalType": "address",
          "name": "receiver",
          "type": "address"
        },
        {
          "internalType": "uint256",
          "name": "royaltyAmount",
          "type": "uint256"
        }
      ],
      "stateMutability": "view",
      "type": "function"
    },
    {
      "inputs": [
        {
          "internalType": "bytes4",
          "name": "_interfaceID",
          "type": "bytes4"
        }
      ],
      "name": "supportsInterface",
      "outputs": [
        {
          "internalType": "bool",
          "name": "",
          "type": "bool"
        }
      ],
      "stateMutability": "pure",
      "type": "function"
    }
  ],
  "bytecode": "0x608060405234801561001057600080fd5b506104a0806100206000396000f3fe608060405234801561001057600080fd5b50600436106100415760003560e01c806301ffc9a7146100465780632a55205a146100a9578063c9823cc614610112575b600080fd5b6100916004803603602081101561005c57600080fd5b8101908080357bffffffffffffffffffffffffffffffffffffffffffffffffffffffff1916906020019092919050505061014d565b60405180821515815260200191505060405180910390f35b6100df600480360360408110156100bf57600080fd5b8101908080359060200190929190803590602001909291905050506101cf565b604051808373ffffffffffffffffffffffffffffffffffffffff1681526020018281526020019250505060405180910390f35b61011a610285565b604051808373ffffffffffffffffffffffffffffffffffffffff1681526020018281526020019250505060405180910390f35b60007f2a55205a000000000000000000000000000000000000000000000000000000007bffffffffffffffffffffffffffffffffffffffffffffffffffffffff1916827bffffffffffffffffffffffffffffffffffffffffffffffffffffffff191614156101be57600190506101ca565b6101c7826102b7565b90505b919050565b6000806101da61043a565b60006040518060400160405290816000820160009054906101000a900473ffffffffffffffffffffffffffffffffffffffff1673ffffffffffffffffffffffffffffffffffffffff1673ffffffffffffffffffffffffffffffffffffffff168152602001600182015481525050905080600001516102796103e861026b84602001518861030890919063ffffffff16565b6103ab90919063ffffffff16565b92509250509250929050565b60008060000160009054906101000a900473ffffffffffffffffffffffffffffffffffffffff16908060010154905082565b60006301ffc9a760e01b7bffffffffffffffffffffffffffffffffffffffffffffffffffffffff1916827bffffffffffffffffffffffffffffffffffffffffffffffffffffffff1916149050919050565b60008083141561031b57600090506103a5565b600082840290508284828161032c57fe5b04146103a0576040517f08c379a00000000000000000000000000000000000000000000000000000000081526004018080602001828103825260168152602001807f536166654d617468236d756c3a204f564552464c4f570000000000000000000081525060200191505060405180910390fd5b809150505b92915050565b6000808211610422576040517f08c379a000000000000000000000000000000000000000000000000000000000815260040180806020018281038252601e8152602001807f536166654d617468236469763a204449564953494f4e5f42595f5a45524f000081525060200191505060405180910390fd5b600082848161042d57fe5b0490508091505092915050565b6040518060400160405280600073ffffffffffffffffffffffffffffffffffffffff16815260200160008152509056fea26469706673582212207c72ab2d421fcfa7db4943e33cc8e4dd1e26de6a7252b889c4be2ce7d372a92464736f6c63430007040033",
  "immutableReferences": {},
  "source": "// SPDX-License-Identifier: Apache-2.0\npragma solidity 0.7.4;\nimport \"../../utils/ERC165.sol\";\nimport \"../../utils/SafeMath.sol\";\nimport \"../../interfaces/IERC2981.sol\";\n\n/**\n * @notice Contract return royalty information for tokens of this contract\n * @dev This contract sets a global fee information for all token ids.\n */\ncontract ERC2981Global is IERC2981, ERC165 {\n  using SafeMath for uint256;\n\n  struct FeeInfo {\n    address receiver;\n    uint256 feeBasisPoints;\n  }\n\n  // Royalty Fee information struct\n  FeeInfo public globalRoyaltyInfo;\n\n  /**\n   * @notice Will set the basis point and royalty recipient that is applied to all assets\n   * @param _receiver Fee recipient that will receive the royalty payments\n   * @param _royaltyBasisPoints Basis points with 3 decimals representing the fee %\n   *        e.g. a fee of 2% would be 20 (i.e. 20 / 1000 == 0.02, or 2%)\n   */\n  function _setGlobalRoyaltyInfo(address _receiver, uint256 _royaltyBasisPoints) internal {\n    require(_receiver != address(0x0), \"ERC2981Global#_setGlobalRoyalty: RECIPIENT_IS_0x0\");\n    require(_royaltyBasisPoints <= 1000, \"ERC2981Global#_setGlobalRoyalty: FEE_IS_ABOVE_100_PERCENT\");\n    globalRoyaltyInfo.receiver = _receiver;\n    globalRoyaltyInfo.feeBasisPoints = _royaltyBasisPoints;\n  }\n\n\n  /***********************************|\n  |         ERC-2981 Functions        |\n  |__________________________________*/\n\n    /**  \n    * @notice Called with the sale price to determine how much royalty is owed and to whom.\n    * @param _saleCost - the sale cost of the NFT asset specified by _tokenId\n    * @return receiver - address of who should be sent the royalty payment\n    * @return royaltyAmount - the royalty payment amount for _salePrice\n    */\n  function royaltyInfo(\n    uint256, \n    uint256 _saleCost\n  ) external view override returns (address receiver, uint256 royaltyAmount) \n  {\n    FeeInfo memory info = globalRoyaltyInfo;\n    return (info.receiver, _saleCost.mul(info.feeBasisPoints).div(1000));\n  }\n\n\n  /***********************************|\n  |         ERC-165 Functions         |\n  |__________________________________*/\n\n  /**\n   * @notice Query if a contract implements an interface\n   * @param _interfaceID  The interface identifier, as specified in ERC-165\n   * @return `true` if the contract implements `_interfaceID` and\n   */\n  function supportsInterface(bytes4 _interfaceID) public override(ERC165, IERC165) virtual pure returns (bool) {\n    if (_interfaceID == type(IERC2981).interfaceId) {\n      return true;\n    }\n    return super.supportsInterface(_interfaceID);\n  }\n}",
  "sourcePath": "@0xsequence/erc-1155/contracts/tokens/ERC2981/ERC2981Global.sol",
  "compiler": {
    "name": "solc",
    "version": "0.7.4+commit.3f05b770.Emscripten.clang"
  },
  "schemaVersion": "3.4.11",
  "updatedAt": "2022-12-28T05:05:48.015Z",
  "devdoc": {
    "details": "This contract sets a global fee information for all token ids.",
    "kind": "dev",
    "methods": {
      "royaltyInfo(uint256,uint256)": {
        "params": {
          "_saleCost": "- the sale cost of the NFT asset specified by _tokenId"
        },
        "returns": {
          "receiver": "- address of who should be sent the royalty payment",
          "royaltyAmount": "- the royalty payment amount for _salePrice"
        }
      },
      "supportsInterface(bytes4)": {
        "params": {
          "_interfaceID": "The interface identifier, as specified in ERC-165"
        },
        "returns": {
          "_0": "`true` if the contract implements `_interfaceID` and"
        }
      }
    },
    "version": 1
  },
  "userdoc": {
    "kind": "user",
    "methods": {
      "royaltyInfo(uint256,uint256)": {
        "notice": "Called with the sale price to determine how much royalty is owed and to whom."
      },
      "supportsInterface(bytes4)": {
        "notice": "Query if a contract implements an interface"
      }
    },
    "notice": "Contract return royalty information for tokens of this contract",
    "version": 1
  }
}