{
  "contractName": "Ownable",
  "abi": [
    {
      "inputs": [
        {
          "internalType": "address",
          "name": "_creator",
          "type": "address"
        },
        {
          "internalType": "address",
          "name": "_firstOwner",
          "type": "address"
        }
      ],
      "stateMutability": "nonpayable",
      "type": "constructor"
    },
    {
      "anonymous": false,
      "inputs": [
        {
          "indexed": true,
          "internalType": "address",
          "name": "previousOwner",
          "type": "address"
        },
        {
          "indexed": true,
          "internalType": "address",
          "name": "newOwner",
          "type": "address"
        }
      ],
      "name": "OwnershipTransferred",
      "type": "event"
    },
    {
      "inputs": [],
      "name": "getOwner",
      "outputs": [
        {
          "internalType": "address",
          "name": "",
          "type": "address"
        }
      ],
      "stateMutability": "view",
      "type": "function"
    },
    {
      "inputs": [],
      "name": "getCreator",
      "outputs": [
        {
          "internalType": "address",
          "name": "",
          "type": "address"
        }
      ],
      "stateMutability": "view",
      "type": "function"
    }
  ],
  "bytecode": "0x608060405234801561001057600080fd5b5060405161025f38038061025f8339818101604052604081101561003357600080fd5b810190808051906020019092919080519060200190929190505050806000806101000a81548173ffffffffffffffffffffffffffffffffffffffff021916908373ffffffffffffffffffffffffffffffffffffffff16021790555081600160006101000a81548173ffffffffffffffffffffffffffffffffffffffff021916908373ffffffffffffffffffffffffffffffffffffffff1602179055508073ffffffffffffffffffffffffffffffffffffffff16600073ffffffffffffffffffffffffffffffffffffffff167f8be0079c531659141344cd1fd0a4f28419497f9722a3daafe3b4186f6b6457e060405160405180910390a350506101248061013b6000396000f3fe6080604052348015600f57600080fd5b506004361060325760003560e01c80630ee2cb10146037578063893d20e8146069575b600080fd5b603d609b565b604051808273ffffffffffffffffffffffffffffffffffffffff16815260200191505060405180910390f35b606f60c5565b604051808273ffffffffffffffffffffffffffffffffffffffff16815260200191505060405180910390f35b6000600160009054906101000a900473ffffffffffffffffffffffffffffffffffffffff16905090565b60008060009054906101000a900473ffffffffffffffffffffffffffffffffffffffff1690509056fea2646970667358221220ba8f634e49ee5c30849e001e63a9cfe3e984b6655bbb8fc3bb1449a009ddb56764736f6c63430007040033",
  "immutableReferences": {},
  "source": "// SPDX-License-Identifier: UNLICENSED\npragma solidity ^0.7.4;\n\n\n\ncontract Ownable {\n  address internal owner;\n  address internal creator;\n\n  event OwnershipTransferred(address indexed previousOwner, address indexed newOwner);\n\n  constructor (address _creator, address _firstOwner) {\n    owner = _firstOwner;\n    creator = _creator;\n    emit OwnershipTransferred(address(0), _firstOwner);\n  }\n\n  modifier onlyOwner() {\n    require(msg.sender == owner, \"Ownable#onlyOwner: SENDER_IS_NOT_OWNER\");\n    _;\n  }\n\n  modifier onlyCreator() {\n    require(msg.sender == creator, \"Ownable#onlyCreator: SENDER_IS_NOT_CREATOR\");\n    _;\n  }\n\n  modifier onlyOwnerOrCreator() {\n    require(msg.sender == owner || msg.sender == creator, \"Ownable#onlyOwnerOrCreator: SENDER_IS_NOT_OWNER_OR_CREATOR\");\n    _;\n  }\n\n  function _transferOwnership(address _newOwner) internal {\n    require(_newOwner != address(0), \"Ownable#transferOwnership: INVALID_ADDRESS\");\n    owner = _newOwner;\n    emit OwnershipTransferred(owner, _newOwner);\n  }\n\n  function getOwner() public view returns (address) {\n    return owner;\n  }\n\n  function getCreator() public view returns (address) {\n    return creator;\n  }  \n\n}",
  "sourcePath": "/Users/shubhaankar/github.com/solo-nw/contracts/contracts/utils/Ownable.sol",
  "compiler": {
    "name": "solc",
    "version": "0.7.4+commit.3f05b770.Emscripten.clang"
  },
  "schemaVersion": "3.4.11",
  "updatedAt": "2023-01-03T09:50:39.363Z",
  "devdoc": {
    "kind": "dev",
    "methods": {},
    "version": 1
  },
  "userdoc": {
    "kind": "user",
    "methods": {},
    "version": 1
  }
}