{
  "contractName": "OwnableSimple",
  "abi": [
    {
      "inputs": [
        {
          "internalType": "address",
          "name": "_firstOwner",
          "type": "address"
        }
      ],
      "stateMutability": "nonpayable",
      "type": "constructor"
    },
    {
      "anonymous": false,
      "inputs": [
        {
          "indexed": true,
          "internalType": "address",
          "name": "previousOwner",
          "type": "address"
        },
        {
          "indexed": true,
          "internalType": "address",
          "name": "newOwner",
          "type": "address"
        }
      ],
      "name": "OwnershipTransferred",
      "type": "event"
    },
    {
      "inputs": [],
      "name": "getOwner",
      "outputs": [
        {
          "internalType": "address",
          "name": "",
          "type": "address"
        }
      ],
      "stateMutability": "view",
      "type": "function"
    }
  ],
  "bytecode": "0x608060405234801561001057600080fd5b506040516101ac3803806101ac8339818101604052602081101561003357600080fd5b8101908080519060200190929190505050806000806101000a81548173ffffffffffffffffffffffffffffffffffffffff021916908373ffffffffffffffffffffffffffffffffffffffff1602179055508073ffffffffffffffffffffffffffffffffffffffff16600073ffffffffffffffffffffffffffffffffffffffff167f8be0079c531659141344cd1fd0a4f28419497f9722a3daafe3b4186f6b6457e060405160405180910390a35060be806100ee6000396000f3fe6080604052348015600f57600080fd5b506004361060285760003560e01c8063893d20e814602d575b600080fd5b6033605f565b604051808273ffffffffffffffffffffffffffffffffffffffff16815260200191505060405180910390f35b60008060009054906101000a900473ffffffffffffffffffffffffffffffffffffffff1690509056fea26469706673582212204c94169b2ddc31dd6d29981d2f8b497e205e7b4a3395c372d1d55fd338ec103a64736f6c63430007040033",
  "immutableReferences": {},
  "source": "// SPDX-License-Identifier: UNLICENSED\npragma solidity ^0.7.4;\n\n\n\ncontract OwnableSimple {\n  address internal owner;\n\n  event OwnershipTransferred(address indexed previousOwner, address indexed newOwner);\n\n  constructor (address _firstOwner) {\n    owner = _firstOwner;\n    emit OwnershipTransferred(address(0), _firstOwner);\n  }\n\n  modifier onlyOwner() {\n    require(msg.sender == owner, \"Ownable#onlyOwner: SENDER_IS_NOT_OWNER\");\n    _;\n  }\n\n  function _transferOwnership(address _newOwner) internal {\n    require(_newOwner != address(0), \"Ownable#transferOwnership: INVALID_ADDRESS\");\n    owner = _newOwner;\n    emit OwnershipTransferred(owner, _newOwner);\n  }\n\n  function getOwner() public view returns (address) {\n    return owner;\n  }\n}",
  "sourcePath": "/Users/shubhaankar/github.com/solo-nw/contracts/contracts/utils/OwnableSimple.sol",
  "compiler": {
    "name": "solc",
    "version": "0.7.4+commit.3f05b770.Emscripten.clang"
  },
  "schemaVersion": "3.4.11",
  "updatedAt": "2023-01-03T09:57:07.415Z",
  "devdoc": {
    "kind": "dev",
    "methods": {},
    "version": 1
  },
  "userdoc": {
    "kind": "user",
    "methods": {},
    "version": 1
  }
}